{
  "contracts/LiquidityContract.sol": {
    "LiquidityContract": {
      "abi": [
        {
          "inputs": [
            {
              "internalType": "contract INonfungiblePositionManager",
              "name": "_nonfungiblePositionManager",
              "type": "address"
            }
          ],
          "stateMutability": "nonpayable",
          "type": "constructor"
        },
        {
          "inputs": [],
          "name": "DAI",
          "outputs": [
            {
              "internalType": "address",
              "name": "",
              "type": "address"
            }
          ],
          "stateMutability": "view",
          "type": "function"
        },
        {
          "inputs": [],
          "name": "USDC",
          "outputs": [
            {
              "internalType": "address",
              "name": "",
              "type": "address"
            }
          ],
          "stateMutability": "view",
          "type": "function"
        },
        {
          "inputs": [
            {
              "internalType": "uint256",
              "name": "tokenId",
              "type": "uint256"
            }
          ],
          "name": "collectAllFees",
          "outputs": [
            {
              "internalType": "uint256",
              "name": "amount0",
              "type": "uint256"
            },
            {
              "internalType": "uint256",
              "name": "amount1",
              "type": "uint256"
            }
          ],
          "stateMutability": "nonpayable",
          "type": "function"
        },
        {
          "inputs": [
            {
              "internalType": "uint256",
              "name": "tokenId",
              "type": "uint256"
            }
          ],
          "name": "decreaseLiquidityInHalf",
          "outputs": [
            {
              "internalType": "uint256",
              "name": "amount0",
              "type": "uint256"
            },
            {
              "internalType": "uint256",
              "name": "amount1",
              "type": "uint256"
            }
          ],
          "stateMutability": "nonpayable",
          "type": "function"
        },
        {
          "inputs": [
            {
              "internalType": "uint256",
              "name": "",
              "type": "uint256"
            }
          ],
          "name": "deposits",
          "outputs": [
            {
              "internalType": "address",
              "name": "owner",
              "type": "address"
            },
            {
              "internalType": "uint128",
              "name": "liquidity",
              "type": "uint128"
            },
            {
              "internalType": "address",
              "name": "token0",
              "type": "address"
            },
            {
              "internalType": "address",
              "name": "token1",
              "type": "address"
            }
          ],
          "stateMutability": "view",
          "type": "function"
        },
        {
          "inputs": [
            {
              "internalType": "uint256",
              "name": "tokenId",
              "type": "uint256"
            },
            {
              "internalType": "uint256",
              "name": "amountAdd0",
              "type": "uint256"
            },
            {
              "internalType": "uint256",
              "name": "amountAdd1",
              "type": "uint256"
            }
          ],
          "name": "increaseLiquidityCurrentRange",
          "outputs": [
            {
              "internalType": "uint128",
              "name": "liquidity",
              "type": "uint128"
            },
            {
              "internalType": "uint256",
              "name": "amount0",
              "type": "uint256"
            },
            {
              "internalType": "uint256",
              "name": "amount1",
              "type": "uint256"
            }
          ],
          "stateMutability": "nonpayable",
          "type": "function"
        },
        {
          "inputs": [],
          "name": "mintNewPosition",
          "outputs": [
            {
              "internalType": "uint256",
              "name": "tokenId",
              "type": "uint256"
            },
            {
              "internalType": "uint128",
              "name": "liquidity",
              "type": "uint128"
            },
            {
              "internalType": "uint256",
              "name": "amount0",
              "type": "uint256"
            },
            {
              "internalType": "uint256",
              "name": "amount1",
              "type": "uint256"
            }
          ],
          "stateMutability": "nonpayable",
          "type": "function"
        },
        {
          "inputs": [],
          "name": "nonfungiblePositionManager",
          "outputs": [
            {
              "internalType": "contract INonfungiblePositionManager",
              "name": "",
              "type": "address"
            }
          ],
          "stateMutability": "view",
          "type": "function"
        },
        {
          "inputs": [
            {
              "internalType": "address",
              "name": "operator",
              "type": "address"
            },
            {
              "internalType": "address",
              "name": "",
              "type": "address"
            },
            {
              "internalType": "uint256",
              "name": "tokenId",
              "type": "uint256"
            },
            {
              "internalType": "bytes",
              "name": "",
              "type": "bytes"
            }
          ],
          "name": "onERC721Received",
          "outputs": [
            {
              "internalType": "bytes4",
              "name": "",
              "type": "bytes4"
            }
          ],
          "stateMutability": "nonpayable",
          "type": "function"
        },
        {
          "inputs": [],
          "name": "poolFee",
          "outputs": [
            {
              "internalType": "uint24",
              "name": "",
              "type": "uint24"
            }
          ],
          "stateMutability": "view",
          "type": "function"
        },
        {
          "inputs": [
            {
              "internalType": "uint256",
              "name": "tokenId",
              "type": "uint256"
            }
          ],
          "name": "retrieveNFT",
          "outputs": [],
          "stateMutability": "nonpayable",
          "type": "function"
        }
      ],
      "evm": {
        "bytecode": {
          "linkReferences": {},
          "object": "60a06040523480156200001157600080fd5b506040516200206b3803806200206b83398181016040528101906200003791906200008c565b8073ffffffffffffffffffffffffffffffffffffffff1660808173ffffffffffffffffffffffffffffffffffffffff1660601b81525050506200011a565b600081519050620000868162000100565b92915050565b6000602082840312156200009f57600080fd5b6000620000af8482850162000075565b91505092915050565b6000620000c582620000e0565b9050919050565b6000620000d982620000b8565b9050919050565b600073ffffffffffffffffffffffffffffffffffffffff82169050919050565b6200010b81620000cc565b81146200011757600080fd5b50565b60805160601c611ef76200017460003980610305528061048f52806104ce528061060152806106e6528061075652806107b252806108a05280610a235280610a835280610add5280610cda5280610e635250611ef76000f3fe608060405234801561001057600080fd5b50600436106100a95760003560e01c8063617d6d6e11610071578063617d6d6e1461016a5780638187b4c51461019c57806389a30271146101cd578063b02c43d0146101eb578063b44a27221461021e578063e0bab4c41461023c576100a9565b8063089fe6aa146100ae5780630a1d7c5f146100cc578063150b7a02146100e8578063306d9c611461011857806346ce96dd14610139575b600080fd5b6100b661025a565b6040516100c39190611ce8565b60405180910390f35b6100e660048036038101906100e191906116fc565b610260565b005b61010260048036038101906100fd919061162d565b610442565b60405161010f9190611bee565b60405180910390f35b610120610461565b6040516101309493929190611d03565b60405180910390f35b610153600480360381019061014e91906116fc565b6107ad565b604051610161929190611d48565b60405180910390f35b610184600480360381019061017f91906117c4565b610961565b60405161019393929190611cb1565b60405180910390f35b6101b660048036038101906101b191906116fc565b610b9c565b6040516101c4929190611d48565b60405180910390f35b6101d5610d9d565b6040516101e29190611b20565b60405180910390f35b610205600480360381019061020091906116fc565b610db5565b6040516102159493929190611ba9565b60405180910390f35b610226610e61565b6040516102339190611c09565b60405180910390f35b610244610e85565b6040516102519190611b20565b60405180910390f35b610bb881565b60008082815260200190815260200160002060000160009054906101000a900473ffffffffffffffffffffffffffffffffffffffff1673ffffffffffffffffffffffffffffffffffffffff163373ffffffffffffffffffffffffffffffffffffffff1614610303576040517f08c379a00000000000000000000000000000000000000000000000000000000081526004016102fa90611c24565b60405180910390fd5b7f000000000000000000000000000000000000000000000000000000000000000073ffffffffffffffffffffffffffffffffffffffff166342842e0e3033846040518463ffffffff1660e01b815260040161036093929190611b72565b600060405180830381600087803b15801561037a57600080fd5b505af115801561038e573d6000803e3d6000fd5b50505050600080828152602001908152602001600020600080820160006101000a81549073ffffffffffffffffffffffffffffffffffffffff02191690556001820160006101000a8154906fffffffffffffffffffffffffffffffff02191690556002820160006101000a81549073ffffffffffffffffffffffffffffffffffffffff02191690556003820160006101000a81549073ffffffffffffffffffffffffffffffffffffffff0219169055505050565b600061044e8685610e9d565b63150b7a0260e01b905095945050505050565b60008060008060006103e8905060006103e890506104b4736b175474e89094c44da98b954eedeac495271d0f7f000000000000000000000000000000000000000000000000000000000000000084610ea1565b6104f373a0b86991c6218b36c1d19d4a2e9eb0ce3606eb487f000000000000000000000000000000000000000000000000000000000000000083610ea1565b6000604051806101600160405280736b175474e89094c44da98b954eedeac495271d0f73ffffffffffffffffffffffffffffffffffffffff16815260200173a0b86991c6218b36c1d19d4a2e9eb0ce3606eb4873ffffffffffffffffffffffffffffffffffffffff168152602001610bb862ffffff1681526020017ffffffffffffffffffffffffffffffffffffffffffffffffffffffffffff2761860020b81526020017ffffffffffffffffffffffffffffffffffffffffffffffffffffffffffff2761860000360020b815260200184815260200183815260200160008152602001600081526020013073ffffffffffffffffffffffffffffffffffffffff1681526020014281525090507f000000000000000000000000000000000000000000000000000000000000000073ffffffffffffffffffffffffffffffffffffffff166388316456826040518263ffffffff1660e01b81526004016106589190611c95565b608060405180830381600087803b15801561067257600080fd5b505af1158015610686573d6000803e3d6000fd5b505050506040513d601f19601f820116820180604052508101906106aa9190611725565b809750819850829950839a50505050506106c43388610e9d565b828510156107345761070c736b175474e89094c44da98b954eedeac495271d0f7f00000000000000000000000000000000000000000000000000000000000000006000610ea1565b60008584039050610732736b175474e89094c44da98b954eedeac495271d0f33836110a2565b505b818410156107a45761077c73a0b86991c6218b36c1d19d4a2e9eb0ce3606eb487f00000000000000000000000000000000000000000000000000000000000000006000610ea1565b600084830390506107a273a0b86991c6218b36c1d19d4a2e9eb0ce3606eb4833836110a2565b505b50505090919293565b6000807f000000000000000000000000000000000000000000000000000000000000000073ffffffffffffffffffffffffffffffffffffffff166342842e0e3330866040518463ffffffff1660e01b815260040161080d93929190611b3b565b600060405180830381600087803b15801561082757600080fd5b505af115801561083b573d6000803e3d6000fd5b50505050600060405180608001604052808581526020013073ffffffffffffffffffffffffffffffffffffffff1681526020016fffffffffffffffffffffffffffffffff801681526020016fffffffffffffffffffffffffffffffff801681525090507f000000000000000000000000000000000000000000000000000000000000000073ffffffffffffffffffffffffffffffffffffffff1663fc6f7865826040518263ffffffff1660e01b81526004016108f79190611c44565b6040805180830381600087803b15801561091057600080fd5b505af1158015610924573d6000803e3d6000fd5b505050506040513d601f19601f820116820180604052508101906109489190611788565b809350819450505061095b8484846112a3565b50915091565b60008060006109a760008088815260200190815260200160002060020160009054906101000a900473ffffffffffffffffffffffffffffffffffffffff1633308861136f565b6109e860008088815260200190815260200160002060030160009054906101000a900473ffffffffffffffffffffffffffffffffffffffff1633308761136f565b610a4860008088815260200190815260200160002060020160009054906101000a900473ffffffffffffffffffffffffffffffffffffffff167f000000000000000000000000000000000000000000000000000000000000000087610ea1565b610aa860008088815260200190815260200160002060030160009054906101000a900473ffffffffffffffffffffffffffffffffffffffff167f000000000000000000000000000000000000000000000000000000000000000086610ea1565b60006040518060c0016040528088815260200187815260200186815260200160008152602001600081526020014281525090507f000000000000000000000000000000000000000000000000000000000000000073ffffffffffffffffffffffffffffffffffffffff1663219f5d17826040518263ffffffff1660e01b8152600401610b349190611c7a565b606060405180830381600087803b158015610b4e57600080fd5b505af1158015610b62573d6000803e3d6000fd5b505050506040513d601f19601f82011682018060405250810190610b8691906116ad565b8094508195508296505050505093509350939050565b60008060008084815260200190815260200160002060000160009054906101000a900473ffffffffffffffffffffffffffffffffffffffff1673ffffffffffffffffffffffffffffffffffffffff163373ffffffffffffffffffffffffffffffffffffffff1614610c42576040517f08c379a0000000000000000000000000000000000000000000000000000000008152600401610c3990611c24565b60405180910390fd5b600080600085815260200190815260200160002060010160009054906101000a90046fffffffffffffffffffffffffffffffff16905060006002826fffffffffffffffffffffffffffffffff1681610c9657fe5b04905060006040518060a00160405280878152602001836fffffffffffffffffffffffffffffffff16815260200160008152602001600081526020014281525090507f000000000000000000000000000000000000000000000000000000000000000073ffffffffffffffffffffffffffffffffffffffff16630c49ccbe826040518263ffffffff1660e01b8152600401610d319190611c5f565b6040805180830381600087803b158015610d4a57600080fd5b505af1158015610d5e573d6000803e3d6000fd5b505050506040513d601f19601f82011682018060405250810190610d829190611788565b8095508196505050610d958686866112a3565b505050915091565b73a0b86991c6218b36c1d19d4a2e9eb0ce3606eb4881565b60006020528060005260406000206000915090508060000160009054906101000a900473ffffffffffffffffffffffffffffffffffffffff16908060010160009054906101000a90046fffffffffffffffffffffffffffffffff16908060020160009054906101000a900473ffffffffffffffffffffffffffffffffffffffff16908060030160009054906101000a900473ffffffffffffffffffffffffffffffffffffffff16905084565b7f000000000000000000000000000000000000000000000000000000000000000081565b736b175474e89094c44da98b954eedeac495271d0f81565b5050565b6000808473ffffffffffffffffffffffffffffffffffffffff1663095ea7b360e01b8585604051602401808373ffffffffffffffffffffffffffffffffffffffff16815260200182815260200192505050604051602081830303815290604052907bffffffffffffffffffffffffffffffffffffffffffffffffffffffff19166020820180517bffffffffffffffffffffffffffffffffffffffffffffffffffffffff83818316178352505050506040518082805190602001908083835b60208310610f825780518252602082019150602081019050602083039250610f5f565b6001836020036101000a0380198251168184511680821785525050505050509050019150506000604051808303816000865af19150503d8060008114610fe4576040519150601f19603f3d011682016040523d82523d6000602084013e610fe9565b606091505b50915091508180156110295750600081511480611028575080806020019051602081101561101657600080fd5b81019080805190602001909291905050505b5b61109b576040517f08c379a00000000000000000000000000000000000000000000000000000000081526004018080602001828103825260028152602001807f534100000000000000000000000000000000000000000000000000000000000081525060200191505060405180910390fd5b5050505050565b6000808473ffffffffffffffffffffffffffffffffffffffff1663a9059cbb60e01b8585604051602401808373ffffffffffffffffffffffffffffffffffffffff16815260200182815260200192505050604051602081830303815290604052907bffffffffffffffffffffffffffffffffffffffffffffffffffffffff19166020820180517bffffffffffffffffffffffffffffffffffffffffffffffffffffffff83818316178352505050506040518082805190602001908083835b602083106111835780518252602082019150602081019050602083039250611160565b6001836020036101000a0380198251168184511680821785525050505050509050019150506000604051808303816000865af19150503d80600081146111e5576040519150601f19603f3d011682016040523d82523d6000602084013e6111ea565b606091505b509150915081801561122a5750600081511480611229575080806020019051602081101561121757600080fd5b81019080805190602001909291905050505b5b61129c576040517f08c379a00000000000000000000000000000000000000000000000000000000081526004018080602001828103825260028152602001807f535400000000000000000000000000000000000000000000000000000000000081525060200191505060405180910390fd5b5050505050565b600080600085815260200190815260200160002060000160009054906101000a900473ffffffffffffffffffffffffffffffffffffffff169050600080600086815260200190815260200160002060020160009054906101000a900473ffffffffffffffffffffffffffffffffffffffff169050600080600087815260200190815260200160002060030160009054906101000a900473ffffffffffffffffffffffffffffffffffffffff16905061135c8284876110a2565b6113678184866110a2565b505050505050565b6000808573ffffffffffffffffffffffffffffffffffffffff166323b872dd60e01b868686604051602401808473ffffffffffffffffffffffffffffffffffffffff1681526020018373ffffffffffffffffffffffffffffffffffffffff1681526020018281526020019350505050604051602081830303815290604052907bffffffffffffffffffffffffffffffffffffffffffffffffffffffff19166020820180517bffffffffffffffffffffffffffffffffffffffffffffffffffffffff83818316178352505050506040518082805190602001908083835b6020831061146e578051825260208201915060208101905060208303925061144b565b6001836020036101000a0380198251168184511680821785525050505050509050019150506000604051808303816000865af19150503d80600081146114d0576040519150601f19603f3d011682016040523d82523d6000602084013e6114d5565b606091505b50915091508180156115155750600081511480611514575080806020019051602081101561150257600080fd5b81019080805190602001909291905050505b5b611587576040517f08c379a00000000000000000000000000000000000000000000000000000000081526004018080602001828103825260038152602001807f535446000000000000000000000000000000000000000000000000000000000081525060200191505060405180910390fd5b505050505050565b60008135905061159e81611e7c565b92915050565b60008083601f8401126115b657600080fd5b8235905067ffffffffffffffff8111156115cf57600080fd5b6020830191508360018202830111156115e757600080fd5b9250929050565b6000815190506115fd81611e93565b92915050565b60008135905061161281611eaa565b92915050565b60008151905061162781611eaa565b92915050565b60008060008060006080868803121561164557600080fd5b60006116538882890161158f565b95505060206116648882890161158f565b945050604061167588828901611603565b935050606086013567ffffffffffffffff81111561169257600080fd5b61169e888289016115a4565b92509250509295509295909350565b6000806000606084860312156116c257600080fd5b60006116d0868287016115ee565b93505060206116e186828701611618565b92505060406116f286828701611618565b9150509250925092565b60006020828403121561170e57600080fd5b600061171c84828501611603565b91505092915050565b6000806000806080858703121561173b57600080fd5b600061174987828801611618565b945050602061175a878288016115ee565b935050604061176b87828801611618565b925050606061177c87828801611618565b91505092959194509250565b6000806040838503121561179b57600080fd5b60006117a985828601611618565b92505060206117ba85828601611618565b9150509250929050565b6000806000606084860312156117d957600080fd5b60006117e786828701611603565b93505060206117f886828701611603565b925050604061180986828701611603565b9150509250925092565b61181c81611e22565b82525050565b61182b81611d82565b82525050565b61183a81611d82565b82525050565b61184981611d94565b82525050565b61185881611e34565b82525050565b61186781611dc0565b82525050565b600061187a600d83611d71565b91507f4e6f7420746865206f776e6572000000000000000000000000000000000000006000830152602082019050919050565b6080820160008201516118c36000850182611b02565b5060208201516118d66020850182611822565b5060408201516118e96040850182611ac6565b5060608201516118fc6060850182611ac6565b50505050565b60a0820160008201516119186000850182611b02565b50602082015161192b6020850182611ac6565b50604082015161193e6040850182611b02565b5060608201516119516060850182611b02565b5060808201516119646080850182611b02565b50505050565b60c0820160008201516119806000850182611b02565b5060208201516119936020850182611b02565b5060408201516119a66040850182611b02565b5060608201516119b96060850182611b02565b5060808201516119cc6080850182611b02565b5060a08201516119df60a0850182611b02565b50505050565b610160820160008201516119fc6000850182611822565b506020820151611a0f6020850182611822565b506040820151611a226040850182611ae4565b506060820151611a35606085018261185e565b506080820151611a48608085018261185e565b5060a0820151611a5b60a0850182611b02565b5060c0820151611a6e60c0850182611b02565b5060e0820151611a8160e0850182611b02565b50610100820151611a96610100850182611b02565b50610120820151611aab610120850182611822565b50610140820151611ac0610140850182611b02565b50505050565b611acf81611dcd565b82525050565b611ade81611dcd565b82525050565b611aed81611e09565b82525050565b611afc81611e09565b82525050565b611b0b81611e18565b82525050565b611b1a81611e18565b82525050565b6000602082019050611b356000830184611831565b92915050565b6000606082019050611b506000830186611813565b611b5d6020830185611831565b611b6a6040830184611b11565b949350505050565b6000606082019050611b876000830186611831565b611b946020830185611813565b611ba16040830184611b11565b949350505050565b6000608082019050611bbe6000830187611831565b611bcb6020830186611ad5565b611bd86040830185611831565b611be56060830184611831565b95945050505050565b6000602082019050611c036000830184611840565b92915050565b6000602082019050611c1e600083018461184f565b92915050565b60006020820190508181036000830152611c3d8161186d565b9050919050565b6000608082019050611c5960008301846118ad565b92915050565b600060a082019050611c746000830184611902565b92915050565b600060c082019050611c8f600083018461196a565b92915050565b600061016082019050611cab60008301846119e5565b92915050565b6000606082019050611cc66000830186611ad5565b611cd36020830185611b11565b611ce06040830184611b11565b949350505050565b6000602082019050611cfd6000830184611af3565b92915050565b6000608082019050611d186000830187611b11565b611d256020830186611ad5565b611d326040830185611b11565b611d3f6060830184611b11565b95945050505050565b6000604082019050611d5d6000830185611b11565b611d6a6020830184611b11565b9392505050565b600082825260208201905092915050565b6000611d8d82611de9565b9050919050565b60007fffffffff0000000000000000000000000000000000000000000000000000000082169050919050565b60008160020b9050919050565b60006fffffffffffffffffffffffffffffffff82169050919050565b600073ffffffffffffffffffffffffffffffffffffffff82169050919050565b600062ffffff82169050919050565b6000819050919050565b6000611e2d82611e58565b9050919050565b6000611e3f82611e46565b9050919050565b6000611e5182611de9565b9050919050565b6000611e6382611e6a565b9050919050565b6000611e7582611de9565b9050919050565b611e8581611d82565b8114611e9057600080fd5b50565b611e9c81611dcd565b8114611ea757600080fd5b50565b611eb381611e18565b8114611ebe57600080fd5b5056fea2646970667358221220c1966c033ab9182edc3f11f09ba584a2144b0bf7e189dadf1f30c401e59b64e864736f6c63430007060033",
          "opcodes": "PUSH1 0xA0 PUSH1 0x40 MSTORE CALLVALUE DUP1 ISZERO PUSH3 0x11 JUMPI PUSH1 0x0 DUP1 REVERT JUMPDEST POP PUSH1 0x40 MLOAD PUSH3 0x206B CODESIZE SUB DUP1 PUSH3 0x206B DUP4 CODECOPY DUP2 DUP2 ADD PUSH1 0x40 MSTORE DUP2 ADD SWAP1 PUSH3 0x37 SWAP2 SWAP1 PUSH3 0x8C JUMP JUMPDEST DUP1 PUSH20 0xFFFFFFFFFFFFFFFFFFFFFFFFFFFFFFFFFFFFFFFF AND PUSH1 0x80 DUP2 PUSH20 0xFFFFFFFFFFFFFFFFFFFFFFFFFFFFFFFFFFFFFFFF AND PUSH1 0x60 SHL DUP2 MSTORE POP POP POP PUSH3 0x11A JUMP JUMPDEST PUSH1 0x0 DUP2 MLOAD SWAP1 POP PUSH3 0x86 DUP2 PUSH3 0x100 JUMP JUMPDEST SWAP3 SWAP2 POP POP JUMP JUMPDEST PUSH1 0x0 PUSH1 0x20 DUP3 DUP5 SUB SLT ISZERO PUSH3 0x9F JUMPI PUSH1 0x0 DUP1 REVERT JUMPDEST PUSH1 0x0 PUSH3 0xAF DUP5 DUP3 DUP6 ADD PUSH3 0x75 JUMP JUMPDEST SWAP2 POP POP SWAP3 SWAP2 POP POP JUMP JUMPDEST PUSH1 0x0 PUSH3 0xC5 DUP3 PUSH3 0xE0 JUMP JUMPDEST SWAP1 POP SWAP2 SWAP1 POP JUMP JUMPDEST PUSH1 0x0 PUSH3 0xD9 DUP3 PUSH3 0xB8 JUMP JUMPDEST SWAP1 POP SWAP2 SWAP1 POP JUMP JUMPDEST PUSH1 0x0 PUSH20 0xFFFFFFFFFFFFFFFFFFFFFFFFFFFFFFFFFFFFFFFF DUP3 AND SWAP1 POP SWAP2 SWAP1 POP JUMP JUMPDEST PUSH3 0x10B DUP2 PUSH3 0xCC JUMP JUMPDEST DUP2 EQ PUSH3 0x117 JUMPI PUSH1 0x0 DUP1 REVERT JUMPDEST POP JUMP JUMPDEST PUSH1 0x80 MLOAD PUSH1 0x60 SHR PUSH2 0x1EF7 PUSH3 0x174 PUSH1 0x0 CODECOPY DUP1 PUSH2 0x305 MSTORE DUP1 PUSH2 0x48F MSTORE DUP1 PUSH2 0x4CE MSTORE DUP1 PUSH2 0x601 MSTORE DUP1 PUSH2 0x6E6 MSTORE DUP1 PUSH2 0x756 MSTORE DUP1 PUSH2 0x7B2 MSTORE DUP1 PUSH2 0x8A0 MSTORE DUP1 PUSH2 0xA23 MSTORE DUP1 PUSH2 0xA83 MSTORE DUP1 PUSH2 0xADD MSTORE DUP1 PUSH2 0xCDA MSTORE DUP1 PUSH2 0xE63 MSTORE POP PUSH2 0x1EF7 PUSH1 0x0 RETURN INVALID PUSH1 0x80 PUSH1 0x40 MSTORE CALLVALUE DUP1 ISZERO PUSH2 0x10 JUMPI PUSH1 0x0 DUP1 REVERT JUMPDEST POP PUSH1 0x4 CALLDATASIZE LT PUSH2 0xA9 JUMPI PUSH1 0x0 CALLDATALOAD PUSH1 0xE0 SHR DUP1 PUSH4 0x617D6D6E GT PUSH2 0x71 JUMPI DUP1 PUSH4 0x617D6D6E EQ PUSH2 0x16A JUMPI DUP1 PUSH4 0x8187B4C5 EQ PUSH2 0x19C JUMPI DUP1 PUSH4 0x89A30271 EQ PUSH2 0x1CD JUMPI DUP1 PUSH4 0xB02C43D0 EQ PUSH2 0x1EB JUMPI DUP1 PUSH4 0xB44A2722 EQ PUSH2 0x21E JUMPI DUP1 PUSH4 0xE0BAB4C4 EQ PUSH2 0x23C JUMPI PUSH2 0xA9 JUMP JUMPDEST DUP1 PUSH4 0x89FE6AA EQ PUSH2 0xAE JUMPI DUP1 PUSH4 0xA1D7C5F EQ PUSH2 0xCC JUMPI DUP1 PUSH4 0x150B7A02 EQ PUSH2 0xE8 JUMPI DUP1 PUSH4 0x306D9C61 EQ PUSH2 0x118 JUMPI DUP1 PUSH4 0x46CE96DD EQ PUSH2 0x139 JUMPI JUMPDEST PUSH1 0x0 DUP1 REVERT JUMPDEST PUSH2 0xB6 PUSH2 0x25A JUMP JUMPDEST PUSH1 0x40 MLOAD PUSH2 0xC3 SWAP2 SWAP1 PUSH2 0x1CE8 JUMP JUMPDEST PUSH1 0x40 MLOAD DUP1 SWAP2 SUB SWAP1 RETURN JUMPDEST PUSH2 0xE6 PUSH1 0x4 DUP1 CALLDATASIZE SUB DUP2 ADD SWAP1 PUSH2 0xE1 SWAP2 SWAP1 PUSH2 0x16FC JUMP JUMPDEST PUSH2 0x260 JUMP JUMPDEST STOP JUMPDEST PUSH2 0x102 PUSH1 0x4 DUP1 CALLDATASIZE SUB DUP2 ADD SWAP1 PUSH2 0xFD SWAP2 SWAP1 PUSH2 0x162D JUMP JUMPDEST PUSH2 0x442 JUMP JUMPDEST PUSH1 0x40 MLOAD PUSH2 0x10F SWAP2 SWAP1 PUSH2 0x1BEE JUMP JUMPDEST PUSH1 0x40 MLOAD DUP1 SWAP2 SUB SWAP1 RETURN JUMPDEST PUSH2 0x120 PUSH2 0x461 JUMP JUMPDEST PUSH1 0x40 MLOAD PUSH2 0x130 SWAP5 SWAP4 SWAP3 SWAP2 SWAP1 PUSH2 0x1D03 JUMP JUMPDEST PUSH1 0x40 MLOAD DUP1 SWAP2 SUB SWAP1 RETURN JUMPDEST PUSH2 0x153 PUSH1 0x4 DUP1 CALLDATASIZE SUB DUP2 ADD SWAP1 PUSH2 0x14E SWAP2 SWAP1 PUSH2 0x16FC JUMP JUMPDEST PUSH2 0x7AD JUMP JUMPDEST PUSH1 0x40 MLOAD PUSH2 0x161 SWAP3 SWAP2 SWAP1 PUSH2 0x1D48 JUMP JUMPDEST PUSH1 0x40 MLOAD DUP1 SWAP2 SUB SWAP1 RETURN JUMPDEST PUSH2 0x184 PUSH1 0x4 DUP1 CALLDATASIZE SUB DUP2 ADD SWAP1 PUSH2 0x17F SWAP2 SWAP1 PUSH2 0x17C4 JUMP JUMPDEST PUSH2 0x961 JUMP JUMPDEST PUSH1 0x40 MLOAD PUSH2 0x193 SWAP4 SWAP3 SWAP2 SWAP1 PUSH2 0x1CB1 JUMP JUMPDEST PUSH1 0x40 MLOAD DUP1 SWAP2 SUB SWAP1 RETURN JUMPDEST PUSH2 0x1B6 PUSH1 0x4 DUP1 CALLDATASIZE SUB DUP2 ADD SWAP1 PUSH2 0x1B1 SWAP2 SWAP1 PUSH2 0x16FC JUMP JUMPDEST PUSH2 0xB9C JUMP JUMPDEST PUSH1 0x40 MLOAD PUSH2 0x1C4 SWAP3 SWAP2 SWAP1 PUSH2 0x1D48 JUMP JUMPDEST PUSH1 0x40 MLOAD DUP1 SWAP2 SUB SWAP1 RETURN JUMPDEST PUSH2 0x1D5 PUSH2 0xD9D JUMP JUMPDEST PUSH1 0x40 MLOAD PUSH2 0x1E2 SWAP2 SWAP1 PUSH2 0x1B20 JUMP JUMPDEST PUSH1 0x40 MLOAD DUP1 SWAP2 SUB SWAP1 RETURN JUMPDEST PUSH2 0x205 PUSH1 0x4 DUP1 CALLDATASIZE SUB DUP2 ADD SWAP1 PUSH2 0x200 SWAP2 SWAP1 PUSH2 0x16FC JUMP JUMPDEST PUSH2 0xDB5 JUMP JUMPDEST PUSH1 0x40 MLOAD PUSH2 0x215 SWAP5 SWAP4 SWAP3 SWAP2 SWAP1 PUSH2 0x1BA9 JUMP JUMPDEST PUSH1 0x40 MLOAD DUP1 SWAP2 SUB SWAP1 RETURN JUMPDEST PUSH2 0x226 PUSH2 0xE61 JUMP JUMPDEST PUSH1 0x40 MLOAD PUSH2 0x233 SWAP2 SWAP1 PUSH2 0x1C09 JUMP JUMPDEST PUSH1 0x40 MLOAD DUP1 SWAP2 SUB SWAP1 RETURN JUMPDEST PUSH2 0x244 PUSH2 0xE85 JUMP JUMPDEST PUSH1 0x40 MLOAD PUSH2 0x251 SWAP2 SWAP1 PUSH2 0x1B20 JUMP JUMPDEST PUSH1 0x40 MLOAD DUP1 SWAP2 SUB SWAP1 RETURN JUMPDEST PUSH2 0xBB8 DUP2 JUMP JUMPDEST PUSH1 0x0 DUP1 DUP3 DUP2 MSTORE PUSH1 0x20 ADD SWAP1 DUP2 MSTORE PUSH1 0x20 ADD PUSH1 0x0 KECCAK256 PUSH1 0x0 ADD PUSH1 0x0 SWAP1 SLOAD SWAP1 PUSH2 0x100 EXP SWAP1 DIV PUSH20 0xFFFFFFFFFFFFFFFFFFFFFFFFFFFFFFFFFFFFFFFF AND PUSH20 0xFFFFFFFFFFFFFFFFFFFFFFFFFFFFFFFFFFFFFFFF AND CALLER PUSH20 0xFFFFFFFFFFFFFFFFFFFFFFFFFFFFFFFFFFFFFFFF AND EQ PUSH2 0x303 JUMPI PUSH1 0x40 MLOAD PUSH32 0x8C379A000000000000000000000000000000000000000000000000000000000 DUP2 MSTORE PUSH1 0x4 ADD PUSH2 0x2FA SWAP1 PUSH2 0x1C24 JUMP JUMPDEST PUSH1 0x40 MLOAD DUP1 SWAP2 SUB SWAP1 REVERT JUMPDEST PUSH32 0x0 PUSH20 0xFFFFFFFFFFFFFFFFFFFFFFFFFFFFFFFFFFFFFFFF AND PUSH4 0x42842E0E ADDRESS CALLER DUP5 PUSH1 0x40 MLOAD DUP5 PUSH4 0xFFFFFFFF AND PUSH1 0xE0 SHL DUP2 MSTORE PUSH1 0x4 ADD PUSH2 0x360 SWAP4 SWAP3 SWAP2 SWAP1 PUSH2 0x1B72 JUMP JUMPDEST PUSH1 0x0 PUSH1 0x40 MLOAD DUP1 DUP4 SUB DUP2 PUSH1 0x0 DUP8 DUP1 EXTCODESIZE ISZERO DUP1 ISZERO PUSH2 0x37A JUMPI PUSH1 0x0 DUP1 REVERT JUMPDEST POP GAS CALL ISZERO DUP1 ISZERO PUSH2 0x38E JUMPI RETURNDATASIZE PUSH1 0x0 DUP1 RETURNDATACOPY RETURNDATASIZE PUSH1 0x0 REVERT JUMPDEST POP POP POP POP PUSH1 0x0 DUP1 DUP3 DUP2 MSTORE PUSH1 0x20 ADD SWAP1 DUP2 MSTORE PUSH1 0x20 ADD PUSH1 0x0 KECCAK256 PUSH1 0x0 DUP1 DUP3 ADD PUSH1 0x0 PUSH2 0x100 EXP DUP2 SLOAD SWAP1 PUSH20 0xFFFFFFFFFFFFFFFFFFFFFFFFFFFFFFFFFFFFFFFF MUL NOT AND SWAP1 SSTORE PUSH1 0x1 DUP3 ADD PUSH1 0x0 PUSH2 0x100 EXP DUP2 SLOAD SWAP1 PUSH16 0xFFFFFFFFFFFFFFFFFFFFFFFFFFFFFFFF MUL NOT AND SWAP1 SSTORE PUSH1 0x2 DUP3 ADD PUSH1 0x0 PUSH2 0x100 EXP DUP2 SLOAD SWAP1 PUSH20 0xFFFFFFFFFFFFFFFFFFFFFFFFFFFFFFFFFFFFFFFF MUL NOT AND SWAP1 SSTORE PUSH1 0x3 DUP3 ADD PUSH1 0x0 PUSH2 0x100 EXP DUP2 SLOAD SWAP1 PUSH20 0xFFFFFFFFFFFFFFFFFFFFFFFFFFFFFFFFFFFFFFFF MUL NOT AND SWAP1 SSTORE POP POP POP JUMP JUMPDEST PUSH1 0x0 PUSH2 0x44E DUP7 DUP6 PUSH2 0xE9D JUMP JUMPDEST PUSH4 0x150B7A02 PUSH1 0xE0 SHL SWAP1 POP SWAP6 SWAP5 POP POP POP POP POP JUMP JUMPDEST PUSH1 0x0 DUP1 PUSH1 0x0 DUP1 PUSH1 0x0 PUSH2 0x3E8 SWAP1 POP PUSH1 0x0 PUSH2 0x3E8 SWAP1 POP PUSH2 0x4B4 PUSH20 0x6B175474E89094C44DA98B954EEDEAC495271D0F PUSH32 0x0 DUP5 PUSH2 0xEA1 JUMP JUMPDEST PUSH2 0x4F3 PUSH20 0xA0B86991C6218B36C1D19D4A2E9EB0CE3606EB48 PUSH32 0x0 DUP4 PUSH2 0xEA1 JUMP JUMPDEST PUSH1 0x0 PUSH1 0x40 MLOAD DUP1 PUSH2 0x160 ADD PUSH1 0x40 MSTORE DUP1 PUSH20 0x6B175474E89094C44DA98B954EEDEAC495271D0F PUSH20 0xFFFFFFFFFFFFFFFFFFFFFFFFFFFFFFFFFFFFFFFF AND DUP2 MSTORE PUSH1 0x20 ADD PUSH20 0xA0B86991C6218B36C1D19D4A2E9EB0CE3606EB48 PUSH20 0xFFFFFFFFFFFFFFFFFFFFFFFFFFFFFFFFFFFFFFFF AND DUP2 MSTORE PUSH1 0x20 ADD PUSH2 0xBB8 PUSH3 0xFFFFFF AND DUP2 MSTORE PUSH1 0x20 ADD PUSH32 0xFFFFFFFFFFFFFFFFFFFFFFFFFFFFFFFFFFFFFFFFFFFFFFFFFFFFFFFFFFF27618 PUSH1 0x2 SIGNEXTEND DUP2 MSTORE PUSH1 0x20 ADD PUSH32 0xFFFFFFFFFFFFFFFFFFFFFFFFFFFFFFFFFFFFFFFFFFFFFFFFFFFFFFFFFFF27618 PUSH1 0x0 SUB PUSH1 0x2 SIGNEXTEND DUP2 MSTORE PUSH1 0x20 ADD DUP5 DUP2 MSTORE PUSH1 0x20 ADD DUP4 DUP2 MSTORE PUSH1 0x20 ADD PUSH1 0x0 DUP2 MSTORE PUSH1 0x20 ADD PUSH1 0x0 DUP2 MSTORE PUSH1 0x20 ADD ADDRESS PUSH20 0xFFFFFFFFFFFFFFFFFFFFFFFFFFFFFFFFFFFFFFFF AND DUP2 MSTORE PUSH1 0x20 ADD TIMESTAMP DUP2 MSTORE POP SWAP1 POP PUSH32 0x0 PUSH20 0xFFFFFFFFFFFFFFFFFFFFFFFFFFFFFFFFFFFFFFFF AND PUSH4 0x88316456 DUP3 PUSH1 0x40 MLOAD DUP3 PUSH4 0xFFFFFFFF AND PUSH1 0xE0 SHL DUP2 MSTORE PUSH1 0x4 ADD PUSH2 0x658 SWAP2 SWAP1 PUSH2 0x1C95 JUMP JUMPDEST PUSH1 0x80 PUSH1 0x40 MLOAD DUP1 DUP4 SUB DUP2 PUSH1 0x0 DUP8 DUP1 EXTCODESIZE ISZERO DUP1 ISZERO PUSH2 0x672 JUMPI PUSH1 0x0 DUP1 REVERT JUMPDEST POP GAS CALL ISZERO DUP1 ISZERO PUSH2 0x686 JUMPI RETURNDATASIZE PUSH1 0x0 DUP1 RETURNDATACOPY RETURNDATASIZE PUSH1 0x0 REVERT JUMPDEST POP POP POP POP PUSH1 0x40 MLOAD RETURNDATASIZE PUSH1 0x1F NOT PUSH1 0x1F DUP3 ADD AND DUP3 ADD DUP1 PUSH1 0x40 MSTORE POP DUP2 ADD SWAP1 PUSH2 0x6AA SWAP2 SWAP1 PUSH2 0x1725 JUMP JUMPDEST DUP1 SWAP8 POP DUP2 SWAP9 POP DUP3 SWAP10 POP DUP4 SWAP11 POP POP POP POP POP PUSH2 0x6C4 CALLER DUP9 PUSH2 0xE9D JUMP JUMPDEST DUP3 DUP6 LT ISZERO PUSH2 0x734 JUMPI PUSH2 0x70C PUSH20 0x6B175474E89094C44DA98B954EEDEAC495271D0F PUSH32 0x0 PUSH1 0x0 PUSH2 0xEA1 JUMP JUMPDEST PUSH1 0x0 DUP6 DUP5 SUB SWAP1 POP PUSH2 0x732 PUSH20 0x6B175474E89094C44DA98B954EEDEAC495271D0F CALLER DUP4 PUSH2 0x10A2 JUMP JUMPDEST POP JUMPDEST DUP2 DUP5 LT ISZERO PUSH2 0x7A4 JUMPI PUSH2 0x77C PUSH20 0xA0B86991C6218B36C1D19D4A2E9EB0CE3606EB48 PUSH32 0x0 PUSH1 0x0 PUSH2 0xEA1 JUMP JUMPDEST PUSH1 0x0 DUP5 DUP4 SUB SWAP1 POP PUSH2 0x7A2 PUSH20 0xA0B86991C6218B36C1D19D4A2E9EB0CE3606EB48 CALLER DUP4 PUSH2 0x10A2 JUMP JUMPDEST POP JUMPDEST POP POP POP SWAP1 SWAP2 SWAP3 SWAP4 JUMP JUMPDEST PUSH1 0x0 DUP1 PUSH32 0x0 PUSH20 0xFFFFFFFFFFFFFFFFFFFFFFFFFFFFFFFFFFFFFFFF AND PUSH4 0x42842E0E CALLER ADDRESS DUP7 PUSH1 0x40 MLOAD DUP5 PUSH4 0xFFFFFFFF AND PUSH1 0xE0 SHL DUP2 MSTORE PUSH1 0x4 ADD PUSH2 0x80D SWAP4 SWAP3 SWAP2 SWAP1 PUSH2 0x1B3B JUMP JUMPDEST PUSH1 0x0 PUSH1 0x40 MLOAD DUP1 DUP4 SUB DUP2 PUSH1 0x0 DUP8 DUP1 EXTCODESIZE ISZERO DUP1 ISZERO PUSH2 0x827 JUMPI PUSH1 0x0 DUP1 REVERT JUMPDEST POP GAS CALL ISZERO DUP1 ISZERO PUSH2 0x83B JUMPI RETURNDATASIZE PUSH1 0x0 DUP1 RETURNDATACOPY RETURNDATASIZE PUSH1 0x0 REVERT JUMPDEST POP POP POP POP PUSH1 0x0 PUSH1 0x40 MLOAD DUP1 PUSH1 0x80 ADD PUSH1 0x40 MSTORE DUP1 DUP6 DUP2 MSTORE PUSH1 0x20 ADD ADDRESS PUSH20 0xFFFFFFFFFFFFFFFFFFFFFFFFFFFFFFFFFFFFFFFF AND DUP2 MSTORE PUSH1 0x20 ADD PUSH16 0xFFFFFFFFFFFFFFFFFFFFFFFFFFFFFFFF DUP1 AND DUP2 MSTORE PUSH1 0x20 ADD PUSH16 0xFFFFFFFFFFFFFFFFFFFFFFFFFFFFFFFF DUP1 AND DUP2 MSTORE POP SWAP1 POP PUSH32 0x0 PUSH20 0xFFFFFFFFFFFFFFFFFFFFFFFFFFFFFFFFFFFFFFFF AND PUSH4 0xFC6F7865 DUP3 PUSH1 0x40 MLOAD DUP3 PUSH4 0xFFFFFFFF AND PUSH1 0xE0 SHL DUP2 MSTORE PUSH1 0x4 ADD PUSH2 0x8F7 SWAP2 SWAP1 PUSH2 0x1C44 JUMP JUMPDEST PUSH1 0x40 DUP1 MLOAD DUP1 DUP4 SUB DUP2 PUSH1 0x0 DUP8 DUP1 EXTCODESIZE ISZERO DUP1 ISZERO PUSH2 0x910 JUMPI PUSH1 0x0 DUP1 REVERT JUMPDEST POP GAS CALL ISZERO DUP1 ISZERO PUSH2 0x924 JUMPI RETURNDATASIZE PUSH1 0x0 DUP1 RETURNDATACOPY RETURNDATASIZE PUSH1 0x0 REVERT JUMPDEST POP POP POP POP PUSH1 0x40 MLOAD RETURNDATASIZE PUSH1 0x1F NOT PUSH1 0x1F DUP3 ADD AND DUP3 ADD DUP1 PUSH1 0x40 MSTORE POP DUP2 ADD SWAP1 PUSH2 0x948 SWAP2 SWAP1 PUSH2 0x1788 JUMP JUMPDEST DUP1 SWAP4 POP DUP2 SWAP5 POP POP POP PUSH2 0x95B DUP5 DUP5 DUP5 PUSH2 0x12A3 JUMP JUMPDEST POP SWAP2 POP SWAP2 JUMP JUMPDEST PUSH1 0x0 DUP1 PUSH1 0x0 PUSH2 0x9A7 PUSH1 0x0 DUP1 DUP9 DUP2 MSTORE PUSH1 0x20 ADD SWAP1 DUP2 MSTORE PUSH1 0x20 ADD PUSH1 0x0 KECCAK256 PUSH1 0x2 ADD PUSH1 0x0 SWAP1 SLOAD SWAP1 PUSH2 0x100 EXP SWAP1 DIV PUSH20 0xFFFFFFFFFFFFFFFFFFFFFFFFFFFFFFFFFFFFFFFF AND CALLER ADDRESS DUP9 PUSH2 0x136F JUMP JUMPDEST PUSH2 0x9E8 PUSH1 0x0 DUP1 DUP9 DUP2 MSTORE PUSH1 0x20 ADD SWAP1 DUP2 MSTORE PUSH1 0x20 ADD PUSH1 0x0 KECCAK256 PUSH1 0x3 ADD PUSH1 0x0 SWAP1 SLOAD SWAP1 PUSH2 0x100 EXP SWAP1 DIV PUSH20 0xFFFFFFFFFFFFFFFFFFFFFFFFFFFFFFFFFFFFFFFF AND CALLER ADDRESS DUP8 PUSH2 0x136F JUMP JUMPDEST PUSH2 0xA48 PUSH1 0x0 DUP1 DUP9 DUP2 MSTORE PUSH1 0x20 ADD SWAP1 DUP2 MSTORE PUSH1 0x20 ADD PUSH1 0x0 KECCAK256 PUSH1 0x2 ADD PUSH1 0x0 SWAP1 SLOAD SWAP1 PUSH2 0x100 EXP SWAP1 DIV PUSH20 0xFFFFFFFFFFFFFFFFFFFFFFFFFFFFFFFFFFFFFFFF AND PUSH32 0x0 DUP8 PUSH2 0xEA1 JUMP JUMPDEST PUSH2 0xAA8 PUSH1 0x0 DUP1 DUP9 DUP2 MSTORE PUSH1 0x20 ADD SWAP1 DUP2 MSTORE PUSH1 0x20 ADD PUSH1 0x0 KECCAK256 PUSH1 0x3 ADD PUSH1 0x0 SWAP1 SLOAD SWAP1 PUSH2 0x100 EXP SWAP1 DIV PUSH20 0xFFFFFFFFFFFFFFFFFFFFFFFFFFFFFFFFFFFFFFFF AND PUSH32 0x0 DUP7 PUSH2 0xEA1 JUMP JUMPDEST PUSH1 0x0 PUSH1 0x40 MLOAD DUP1 PUSH1 0xC0 ADD PUSH1 0x40 MSTORE DUP1 DUP9 DUP2 MSTORE PUSH1 0x20 ADD DUP8 DUP2 MSTORE PUSH1 0x20 ADD DUP7 DUP2 MSTORE PUSH1 0x20 ADD PUSH1 0x0 DUP2 MSTORE PUSH1 0x20 ADD PUSH1 0x0 DUP2 MSTORE PUSH1 0x20 ADD TIMESTAMP DUP2 MSTORE POP SWAP1 POP PUSH32 0x0 PUSH20 0xFFFFFFFFFFFFFFFFFFFFFFFFFFFFFFFFFFFFFFFF AND PUSH4 0x219F5D17 DUP3 PUSH1 0x40 MLOAD DUP3 PUSH4 0xFFFFFFFF AND PUSH1 0xE0 SHL DUP2 MSTORE PUSH1 0x4 ADD PUSH2 0xB34 SWAP2 SWAP1 PUSH2 0x1C7A JUMP JUMPDEST PUSH1 0x60 PUSH1 0x40 MLOAD DUP1 DUP4 SUB DUP2 PUSH1 0x0 DUP8 DUP1 EXTCODESIZE ISZERO DUP1 ISZERO PUSH2 0xB4E JUMPI PUSH1 0x0 DUP1 REVERT JUMPDEST POP GAS CALL ISZERO DUP1 ISZERO PUSH2 0xB62 JUMPI RETURNDATASIZE PUSH1 0x0 DUP1 RETURNDATACOPY RETURNDATASIZE PUSH1 0x0 REVERT JUMPDEST POP POP POP POP PUSH1 0x40 MLOAD RETURNDATASIZE PUSH1 0x1F NOT PUSH1 0x1F DUP3 ADD AND DUP3 ADD DUP1 PUSH1 0x40 MSTORE POP DUP2 ADD SWAP1 PUSH2 0xB86 SWAP2 SWAP1 PUSH2 0x16AD JUMP JUMPDEST DUP1 SWAP5 POP DUP2 SWAP6 POP DUP3 SWAP7 POP POP POP POP POP SWAP4 POP SWAP4 POP SWAP4 SWAP1 POP JUMP JUMPDEST PUSH1 0x0 DUP1 PUSH1 0x0 DUP1 DUP5 DUP2 MSTORE PUSH1 0x20 ADD SWAP1 DUP2 MSTORE PUSH1 0x20 ADD PUSH1 0x0 KECCAK256 PUSH1 0x0 ADD PUSH1 0x0 SWAP1 SLOAD SWAP1 PUSH2 0x100 EXP SWAP1 DIV PUSH20 0xFFFFFFFFFFFFFFFFFFFFFFFFFFFFFFFFFFFFFFFF AND PUSH20 0xFFFFFFFFFFFFFFFFFFFFFFFFFFFFFFFFFFFFFFFF AND CALLER PUSH20 0xFFFFFFFFFFFFFFFFFFFFFFFFFFFFFFFFFFFFFFFF AND EQ PUSH2 0xC42 JUMPI PUSH1 0x40 MLOAD PUSH32 0x8C379A000000000000000000000000000000000000000000000000000000000 DUP2 MSTORE PUSH1 0x4 ADD PUSH2 0xC39 SWAP1 PUSH2 0x1C24 JUMP JUMPDEST PUSH1 0x40 MLOAD DUP1 SWAP2 SUB SWAP1 REVERT JUMPDEST PUSH1 0x0 DUP1 PUSH1 0x0 DUP6 DUP2 MSTORE PUSH1 0x20 ADD SWAP1 DUP2 MSTORE PUSH1 0x20 ADD PUSH1 0x0 KECCAK256 PUSH1 0x1 ADD PUSH1 0x0 SWAP1 SLOAD SWAP1 PUSH2 0x100 EXP SWAP1 DIV PUSH16 0xFFFFFFFFFFFFFFFFFFFFFFFFFFFFFFFF AND SWAP1 POP PUSH1 0x0 PUSH1 0x2 DUP3 PUSH16 0xFFFFFFFFFFFFFFFFFFFFFFFFFFFFFFFF AND DUP2 PUSH2 0xC96 JUMPI INVALID JUMPDEST DIV SWAP1 POP PUSH1 0x0 PUSH1 0x40 MLOAD DUP1 PUSH1 0xA0 ADD PUSH1 0x40 MSTORE DUP1 DUP8 DUP2 MSTORE PUSH1 0x20 ADD DUP4 PUSH16 0xFFFFFFFFFFFFFFFFFFFFFFFFFFFFFFFF AND DUP2 MSTORE PUSH1 0x20 ADD PUSH1 0x0 DUP2 MSTORE PUSH1 0x20 ADD PUSH1 0x0 DUP2 MSTORE PUSH1 0x20 ADD TIMESTAMP DUP2 MSTORE POP SWAP1 POP PUSH32 0x0 PUSH20 0xFFFFFFFFFFFFFFFFFFFFFFFFFFFFFFFFFFFFFFFF AND PUSH4 0xC49CCBE DUP3 PUSH1 0x40 MLOAD DUP3 PUSH4 0xFFFFFFFF AND PUSH1 0xE0 SHL DUP2 MSTORE PUSH1 0x4 ADD PUSH2 0xD31 SWAP2 SWAP1 PUSH2 0x1C5F JUMP JUMPDEST PUSH1 0x40 DUP1 MLOAD DUP1 DUP4 SUB DUP2 PUSH1 0x0 DUP8 DUP1 EXTCODESIZE ISZERO DUP1 ISZERO PUSH2 0xD4A JUMPI PUSH1 0x0 DUP1 REVERT JUMPDEST POP GAS CALL ISZERO DUP1 ISZERO PUSH2 0xD5E JUMPI RETURNDATASIZE PUSH1 0x0 DUP1 RETURNDATACOPY RETURNDATASIZE PUSH1 0x0 REVERT JUMPDEST POP POP POP POP PUSH1 0x40 MLOAD RETURNDATASIZE PUSH1 0x1F NOT PUSH1 0x1F DUP3 ADD AND DUP3 ADD DUP1 PUSH1 0x40 MSTORE POP DUP2 ADD SWAP1 PUSH2 0xD82 SWAP2 SWAP1 PUSH2 0x1788 JUMP JUMPDEST DUP1 SWAP6 POP DUP2 SWAP7 POP POP POP PUSH2 0xD95 DUP7 DUP7 DUP7 PUSH2 0x12A3 JUMP JUMPDEST POP POP POP SWAP2 POP SWAP2 JUMP JUMPDEST PUSH20 0xA0B86991C6218B36C1D19D4A2E9EB0CE3606EB48 DUP2 JUMP JUMPDEST PUSH1 0x0 PUSH1 0x20 MSTORE DUP1 PUSH1 0x0 MSTORE PUSH1 0x40 PUSH1 0x0 KECCAK256 PUSH1 0x0 SWAP2 POP SWAP1 POP DUP1 PUSH1 0x0 ADD PUSH1 0x0 SWAP1 SLOAD SWAP1 PUSH2 0x100 EXP SWAP1 DIV PUSH20 0xFFFFFFFFFFFFFFFFFFFFFFFFFFFFFFFFFFFFFFFF AND SWAP1 DUP1 PUSH1 0x1 ADD PUSH1 0x0 SWAP1 SLOAD SWAP1 PUSH2 0x100 EXP SWAP1 DIV PUSH16 0xFFFFFFFFFFFFFFFFFFFFFFFFFFFFFFFF AND SWAP1 DUP1 PUSH1 0x2 ADD PUSH1 0x0 SWAP1 SLOAD SWAP1 PUSH2 0x100 EXP SWAP1 DIV PUSH20 0xFFFFFFFFFFFFFFFFFFFFFFFFFFFFFFFFFFFFFFFF AND SWAP1 DUP1 PUSH1 0x3 ADD PUSH1 0x0 SWAP1 SLOAD SWAP1 PUSH2 0x100 EXP SWAP1 DIV PUSH20 0xFFFFFFFFFFFFFFFFFFFFFFFFFFFFFFFFFFFFFFFF AND SWAP1 POP DUP5 JUMP JUMPDEST PUSH32 0x0 DUP2 JUMP JUMPDEST PUSH20 0x6B175474E89094C44DA98B954EEDEAC495271D0F DUP2 JUMP JUMPDEST POP POP JUMP JUMPDEST PUSH1 0x0 DUP1 DUP5 PUSH20 0xFFFFFFFFFFFFFFFFFFFFFFFFFFFFFFFFFFFFFFFF AND PUSH4 0x95EA7B3 PUSH1 0xE0 SHL DUP6 DUP6 PUSH1 0x40 MLOAD PUSH1 0x24 ADD DUP1 DUP4 PUSH20 0xFFFFFFFFFFFFFFFFFFFFFFFFFFFFFFFFFFFFFFFF AND DUP2 MSTORE PUSH1 0x20 ADD DUP3 DUP2 MSTORE PUSH1 0x20 ADD SWAP3 POP POP POP PUSH1 0x40 MLOAD PUSH1 0x20 DUP2 DUP4 SUB SUB DUP2 MSTORE SWAP1 PUSH1 0x40 MSTORE SWAP1 PUSH28 0xFFFFFFFFFFFFFFFFFFFFFFFFFFFFFFFFFFFFFFFFFFFFFFFFFFFFFFFF NOT AND PUSH1 0x20 DUP3 ADD DUP1 MLOAD PUSH28 0xFFFFFFFFFFFFFFFFFFFFFFFFFFFFFFFFFFFFFFFFFFFFFFFFFFFFFFFF DUP4 DUP2 DUP4 AND OR DUP4 MSTORE POP POP POP POP PUSH1 0x40 MLOAD DUP1 DUP3 DUP1 MLOAD SWAP1 PUSH1 0x20 ADD SWAP1 DUP1 DUP4 DUP4 JUMPDEST PUSH1 0x20 DUP4 LT PUSH2 0xF82 JUMPI DUP1 MLOAD DUP3 MSTORE PUSH1 0x20 DUP3 ADD SWAP2 POP PUSH1 0x20 DUP2 ADD SWAP1 POP PUSH1 0x20 DUP4 SUB SWAP3 POP PUSH2 0xF5F JUMP JUMPDEST PUSH1 0x1 DUP4 PUSH1 0x20 SUB PUSH2 0x100 EXP SUB DUP1 NOT DUP3 MLOAD AND DUP2 DUP5 MLOAD AND DUP1 DUP3 OR DUP6 MSTORE POP POP POP POP POP POP SWAP1 POP ADD SWAP2 POP POP PUSH1 0x0 PUSH1 0x40 MLOAD DUP1 DUP4 SUB DUP2 PUSH1 0x0 DUP7 GAS CALL SWAP2 POP POP RETURNDATASIZE DUP1 PUSH1 0x0 DUP2 EQ PUSH2 0xFE4 JUMPI PUSH1 0x40 MLOAD SWAP2 POP PUSH1 0x1F NOT PUSH1 0x3F RETURNDATASIZE ADD AND DUP3 ADD PUSH1 0x40 MSTORE RETURNDATASIZE DUP3 MSTORE RETURNDATASIZE PUSH1 0x0 PUSH1 0x20 DUP5 ADD RETURNDATACOPY PUSH2 0xFE9 JUMP JUMPDEST PUSH1 0x60 SWAP2 POP JUMPDEST POP SWAP2 POP SWAP2 POP DUP2 DUP1 ISZERO PUSH2 0x1029 JUMPI POP PUSH1 0x0 DUP2 MLOAD EQ DUP1 PUSH2 0x1028 JUMPI POP DUP1 DUP1 PUSH1 0x20 ADD SWAP1 MLOAD PUSH1 0x20 DUP2 LT ISZERO PUSH2 0x1016 JUMPI PUSH1 0x0 DUP1 REVERT JUMPDEST DUP2 ADD SWAP1 DUP1 DUP1 MLOAD SWAP1 PUSH1 0x20 ADD SWAP1 SWAP3 SWAP2 SWAP1 POP POP POP JUMPDEST JUMPDEST PUSH2 0x109B JUMPI PUSH1 0x40 MLOAD PUSH32 0x8C379A000000000000000000000000000000000000000000000000000000000 DUP2 MSTORE PUSH1 0x4 ADD DUP1 DUP1 PUSH1 0x20 ADD DUP3 DUP2 SUB DUP3 MSTORE PUSH1 0x2 DUP2 MSTORE PUSH1 0x20 ADD DUP1 PUSH32 0x5341000000000000000000000000000000000000000000000000000000000000 DUP2 MSTORE POP PUSH1 0x20 ADD SWAP2 POP POP PUSH1 0x40 MLOAD DUP1 SWAP2 SUB SWAP1 REVERT JUMPDEST POP POP POP POP POP JUMP JUMPDEST PUSH1 0x0 DUP1 DUP5 PUSH20 0xFFFFFFFFFFFFFFFFFFFFFFFFFFFFFFFFFFFFFFFF AND PUSH4 0xA9059CBB PUSH1 0xE0 SHL DUP6 DUP6 PUSH1 0x40 MLOAD PUSH1 0x24 ADD DUP1 DUP4 PUSH20 0xFFFFFFFFFFFFFFFFFFFFFFFFFFFFFFFFFFFFFFFF AND DUP2 MSTORE PUSH1 0x20 ADD DUP3 DUP2 MSTORE PUSH1 0x20 ADD SWAP3 POP POP POP PUSH1 0x40 MLOAD PUSH1 0x20 DUP2 DUP4 SUB SUB DUP2 MSTORE SWAP1 PUSH1 0x40 MSTORE SWAP1 PUSH28 0xFFFFFFFFFFFFFFFFFFFFFFFFFFFFFFFFFFFFFFFFFFFFFFFFFFFFFFFF NOT AND PUSH1 0x20 DUP3 ADD DUP1 MLOAD PUSH28 0xFFFFFFFFFFFFFFFFFFFFFFFFFFFFFFFFFFFFFFFFFFFFFFFFFFFFFFFF DUP4 DUP2 DUP4 AND OR DUP4 MSTORE POP POP POP POP PUSH1 0x40 MLOAD DUP1 DUP3 DUP1 MLOAD SWAP1 PUSH1 0x20 ADD SWAP1 DUP1 DUP4 DUP4 JUMPDEST PUSH1 0x20 DUP4 LT PUSH2 0x1183 JUMPI DUP1 MLOAD DUP3 MSTORE PUSH1 0x20 DUP3 ADD SWAP2 POP PUSH1 0x20 DUP2 ADD SWAP1 POP PUSH1 0x20 DUP4 SUB SWAP3 POP PUSH2 0x1160 JUMP JUMPDEST PUSH1 0x1 DUP4 PUSH1 0x20 SUB PUSH2 0x100 EXP SUB DUP1 NOT DUP3 MLOAD AND DUP2 DUP5 MLOAD AND DUP1 DUP3 OR DUP6 MSTORE POP POP POP POP POP POP SWAP1 POP ADD SWAP2 POP POP PUSH1 0x0 PUSH1 0x40 MLOAD DUP1 DUP4 SUB DUP2 PUSH1 0x0 DUP7 GAS CALL SWAP2 POP POP RETURNDATASIZE DUP1 PUSH1 0x0 DUP2 EQ PUSH2 0x11E5 JUMPI PUSH1 0x40 MLOAD SWAP2 POP PUSH1 0x1F NOT PUSH1 0x3F RETURNDATASIZE ADD AND DUP3 ADD PUSH1 0x40 MSTORE RETURNDATASIZE DUP3 MSTORE RETURNDATASIZE PUSH1 0x0 PUSH1 0x20 DUP5 ADD RETURNDATACOPY PUSH2 0x11EA JUMP JUMPDEST PUSH1 0x60 SWAP2 POP JUMPDEST POP SWAP2 POP SWAP2 POP DUP2 DUP1 ISZERO PUSH2 0x122A JUMPI POP PUSH1 0x0 DUP2 MLOAD EQ DUP1 PUSH2 0x1229 JUMPI POP DUP1 DUP1 PUSH1 0x20 ADD SWAP1 MLOAD PUSH1 0x20 DUP2 LT ISZERO PUSH2 0x1217 JUMPI PUSH1 0x0 DUP1 REVERT JUMPDEST DUP2 ADD SWAP1 DUP1 DUP1 MLOAD SWAP1 PUSH1 0x20 ADD SWAP1 SWAP3 SWAP2 SWAP1 POP POP POP JUMPDEST JUMPDEST PUSH2 0x129C JUMPI PUSH1 0x40 MLOAD PUSH32 0x8C379A000000000000000000000000000000000000000000000000000000000 DUP2 MSTORE PUSH1 0x4 ADD DUP1 DUP1 PUSH1 0x20 ADD DUP3 DUP2 SUB DUP3 MSTORE PUSH1 0x2 DUP2 MSTORE PUSH1 0x20 ADD DUP1 PUSH32 0x5354000000000000000000000000000000000000000000000000000000000000 DUP2 MSTORE POP PUSH1 0x20 ADD SWAP2 POP POP PUSH1 0x40 MLOAD DUP1 SWAP2 SUB SWAP1 REVERT JUMPDEST POP POP POP POP POP JUMP JUMPDEST PUSH1 0x0 DUP1 PUSH1 0x0 DUP6 DUP2 MSTORE PUSH1 0x20 ADD SWAP1 DUP2 MSTORE PUSH1 0x20 ADD PUSH1 0x0 KECCAK256 PUSH1 0x0 ADD PUSH1 0x0 SWAP1 SLOAD SWAP1 PUSH2 0x100 EXP SWAP1 DIV PUSH20 0xFFFFFFFFFFFFFFFFFFFFFFFFFFFFFFFFFFFFFFFF AND SWAP1 POP PUSH1 0x0 DUP1 PUSH1 0x0 DUP7 DUP2 MSTORE PUSH1 0x20 ADD SWAP1 DUP2 MSTORE PUSH1 0x20 ADD PUSH1 0x0 KECCAK256 PUSH1 0x2 ADD PUSH1 0x0 SWAP1 SLOAD SWAP1 PUSH2 0x100 EXP SWAP1 DIV PUSH20 0xFFFFFFFFFFFFFFFFFFFFFFFFFFFFFFFFFFFFFFFF AND SWAP1 POP PUSH1 0x0 DUP1 PUSH1 0x0 DUP8 DUP2 MSTORE PUSH1 0x20 ADD SWAP1 DUP2 MSTORE PUSH1 0x20 ADD PUSH1 0x0 KECCAK256 PUSH1 0x3 ADD PUSH1 0x0 SWAP1 SLOAD SWAP1 PUSH2 0x100 EXP SWAP1 DIV PUSH20 0xFFFFFFFFFFFFFFFFFFFFFFFFFFFFFFFFFFFFFFFF AND SWAP1 POP PUSH2 0x135C DUP3 DUP5 DUP8 PUSH2 0x10A2 JUMP JUMPDEST PUSH2 0x1367 DUP2 DUP5 DUP7 PUSH2 0x10A2 JUMP JUMPDEST POP POP POP POP POP POP JUMP JUMPDEST PUSH1 0x0 DUP1 DUP6 PUSH20 0xFFFFFFFFFFFFFFFFFFFFFFFFFFFFFFFFFFFFFFFF AND PUSH4 0x23B872DD PUSH1 0xE0 SHL DUP7 DUP7 DUP7 PUSH1 0x40 MLOAD PUSH1 0x24 ADD DUP1 DUP5 PUSH20 0xFFFFFFFFFFFFFFFFFFFFFFFFFFFFFFFFFFFFFFFF AND DUP2 MSTORE PUSH1 0x20 ADD DUP4 PUSH20 0xFFFFFFFFFFFFFFFFFFFFFFFFFFFFFFFFFFFFFFFF AND DUP2 MSTORE PUSH1 0x20 ADD DUP3 DUP2 MSTORE PUSH1 0x20 ADD SWAP4 POP POP POP POP PUSH1 0x40 MLOAD PUSH1 0x20 DUP2 DUP4 SUB SUB DUP2 MSTORE SWAP1 PUSH1 0x40 MSTORE SWAP1 PUSH28 0xFFFFFFFFFFFFFFFFFFFFFFFFFFFFFFFFFFFFFFFFFFFFFFFFFFFFFFFF NOT AND PUSH1 0x20 DUP3 ADD DUP1 MLOAD PUSH28 0xFFFFFFFFFFFFFFFFFFFFFFFFFFFFFFFFFFFFFFFFFFFFFFFFFFFFFFFF DUP4 DUP2 DUP4 AND OR DUP4 MSTORE POP POP POP POP PUSH1 0x40 MLOAD DUP1 DUP3 DUP1 MLOAD SWAP1 PUSH1 0x20 ADD SWAP1 DUP1 DUP4 DUP4 JUMPDEST PUSH1 0x20 DUP4 LT PUSH2 0x146E JUMPI DUP1 MLOAD DUP3 MSTORE PUSH1 0x20 DUP3 ADD SWAP2 POP PUSH1 0x20 DUP2 ADD SWAP1 POP PUSH1 0x20 DUP4 SUB SWAP3 POP PUSH2 0x144B JUMP JUMPDEST PUSH1 0x1 DUP4 PUSH1 0x20 SUB PUSH2 0x100 EXP SUB DUP1 NOT DUP3 MLOAD AND DUP2 DUP5 MLOAD AND DUP1 DUP3 OR DUP6 MSTORE POP POP POP POP POP POP SWAP1 POP ADD SWAP2 POP POP PUSH1 0x0 PUSH1 0x40 MLOAD DUP1 DUP4 SUB DUP2 PUSH1 0x0 DUP7 GAS CALL SWAP2 POP POP RETURNDATASIZE DUP1 PUSH1 0x0 DUP2 EQ PUSH2 0x14D0 JUMPI PUSH1 0x40 MLOAD SWAP2 POP PUSH1 0x1F NOT PUSH1 0x3F RETURNDATASIZE ADD AND DUP3 ADD PUSH1 0x40 MSTORE RETURNDATASIZE DUP3 MSTORE RETURNDATASIZE PUSH1 0x0 PUSH1 0x20 DUP5 ADD RETURNDATACOPY PUSH2 0x14D5 JUMP JUMPDEST PUSH1 0x60 SWAP2 POP JUMPDEST POP SWAP2 POP SWAP2 POP DUP2 DUP1 ISZERO PUSH2 0x1515 JUMPI POP PUSH1 0x0 DUP2 MLOAD EQ DUP1 PUSH2 0x1514 JUMPI POP DUP1 DUP1 PUSH1 0x20 ADD SWAP1 MLOAD PUSH1 0x20 DUP2 LT ISZERO PUSH2 0x1502 JUMPI PUSH1 0x0 DUP1 REVERT JUMPDEST DUP2 ADD SWAP1 DUP1 DUP1 MLOAD SWAP1 PUSH1 0x20 ADD SWAP1 SWAP3 SWAP2 SWAP1 POP POP POP JUMPDEST JUMPDEST PUSH2 0x1587 JUMPI PUSH1 0x40 MLOAD PUSH32 0x8C379A000000000000000000000000000000000000000000000000000000000 DUP2 MSTORE PUSH1 0x4 ADD DUP1 DUP1 PUSH1 0x20 ADD DUP3 DUP2 SUB DUP3 MSTORE PUSH1 0x3 DUP2 MSTORE PUSH1 0x20 ADD DUP1 PUSH32 0x5354460000000000000000000000000000000000000000000000000000000000 DUP2 MSTORE POP PUSH1 0x20 ADD SWAP2 POP POP PUSH1 0x40 MLOAD DUP1 SWAP2 SUB SWAP1 REVERT JUMPDEST POP POP POP POP POP POP JUMP JUMPDEST PUSH1 0x0 DUP2 CALLDATALOAD SWAP1 POP PUSH2 0x159E DUP2 PUSH2 0x1E7C JUMP JUMPDEST SWAP3 SWAP2 POP POP JUMP JUMPDEST PUSH1 0x0 DUP1 DUP4 PUSH1 0x1F DUP5 ADD SLT PUSH2 0x15B6 JUMPI PUSH1 0x0 DUP1 REVERT JUMPDEST DUP3 CALLDATALOAD SWAP1 POP PUSH8 0xFFFFFFFFFFFFFFFF DUP2 GT ISZERO PUSH2 0x15CF JUMPI PUSH1 0x0 DUP1 REVERT JUMPDEST PUSH1 0x20 DUP4 ADD SWAP2 POP DUP4 PUSH1 0x1 DUP3 MUL DUP4 ADD GT ISZERO PUSH2 0x15E7 JUMPI PUSH1 0x0 DUP1 REVERT JUMPDEST SWAP3 POP SWAP3 SWAP1 POP JUMP JUMPDEST PUSH1 0x0 DUP2 MLOAD SWAP1 POP PUSH2 0x15FD DUP2 PUSH2 0x1E93 JUMP JUMPDEST SWAP3 SWAP2 POP POP JUMP JUMPDEST PUSH1 0x0 DUP2 CALLDATALOAD SWAP1 POP PUSH2 0x1612 DUP2 PUSH2 0x1EAA JUMP JUMPDEST SWAP3 SWAP2 POP POP JUMP JUMPDEST PUSH1 0x0 DUP2 MLOAD SWAP1 POP PUSH2 0x1627 DUP2 PUSH2 0x1EAA JUMP JUMPDEST SWAP3 SWAP2 POP POP JUMP JUMPDEST PUSH1 0x0 DUP1 PUSH1 0x0 DUP1 PUSH1 0x0 PUSH1 0x80 DUP7 DUP9 SUB SLT ISZERO PUSH2 0x1645 JUMPI PUSH1 0x0 DUP1 REVERT JUMPDEST PUSH1 0x0 PUSH2 0x1653 DUP9 DUP3 DUP10 ADD PUSH2 0x158F JUMP JUMPDEST SWAP6 POP POP PUSH1 0x20 PUSH2 0x1664 DUP9 DUP3 DUP10 ADD PUSH2 0x158F JUMP JUMPDEST SWAP5 POP POP PUSH1 0x40 PUSH2 0x1675 DUP9 DUP3 DUP10 ADD PUSH2 0x1603 JUMP JUMPDEST SWAP4 POP POP PUSH1 0x60 DUP7 ADD CALLDATALOAD PUSH8 0xFFFFFFFFFFFFFFFF DUP2 GT ISZERO PUSH2 0x1692 JUMPI PUSH1 0x0 DUP1 REVERT JUMPDEST PUSH2 0x169E DUP9 DUP3 DUP10 ADD PUSH2 0x15A4 JUMP JUMPDEST SWAP3 POP SWAP3 POP POP SWAP3 SWAP6 POP SWAP3 SWAP6 SWAP1 SWAP4 POP JUMP JUMPDEST PUSH1 0x0 DUP1 PUSH1 0x0 PUSH1 0x60 DUP5 DUP7 SUB SLT ISZERO PUSH2 0x16C2 JUMPI PUSH1 0x0 DUP1 REVERT JUMPDEST PUSH1 0x0 PUSH2 0x16D0 DUP7 DUP3 DUP8 ADD PUSH2 0x15EE JUMP JUMPDEST SWAP4 POP POP PUSH1 0x20 PUSH2 0x16E1 DUP7 DUP3 DUP8 ADD PUSH2 0x1618 JUMP JUMPDEST SWAP3 POP POP PUSH1 0x40 PUSH2 0x16F2 DUP7 DUP3 DUP8 ADD PUSH2 0x1618 JUMP JUMPDEST SWAP2 POP POP SWAP3 POP SWAP3 POP SWAP3 JUMP JUMPDEST PUSH1 0x0 PUSH1 0x20 DUP3 DUP5 SUB SLT ISZERO PUSH2 0x170E JUMPI PUSH1 0x0 DUP1 REVERT JUMPDEST PUSH1 0x0 PUSH2 0x171C DUP5 DUP3 DUP6 ADD PUSH2 0x1603 JUMP JUMPDEST SWAP2 POP POP SWAP3 SWAP2 POP POP JUMP JUMPDEST PUSH1 0x0 DUP1 PUSH1 0x0 DUP1 PUSH1 0x80 DUP6 DUP8 SUB SLT ISZERO PUSH2 0x173B JUMPI PUSH1 0x0 DUP1 REVERT JUMPDEST PUSH1 0x0 PUSH2 0x1749 DUP8 DUP3 DUP9 ADD PUSH2 0x1618 JUMP JUMPDEST SWAP5 POP POP PUSH1 0x20 PUSH2 0x175A DUP8 DUP3 DUP9 ADD PUSH2 0x15EE JUMP JUMPDEST SWAP4 POP POP PUSH1 0x40 PUSH2 0x176B DUP8 DUP3 DUP9 ADD PUSH2 0x1618 JUMP JUMPDEST SWAP3 POP POP PUSH1 0x60 PUSH2 0x177C DUP8 DUP3 DUP9 ADD PUSH2 0x1618 JUMP JUMPDEST SWAP2 POP POP SWAP3 SWAP6 SWAP2 SWAP5 POP SWAP3 POP JUMP JUMPDEST PUSH1 0x0 DUP1 PUSH1 0x40 DUP4 DUP6 SUB SLT ISZERO PUSH2 0x179B JUMPI PUSH1 0x0 DUP1 REVERT JUMPDEST PUSH1 0x0 PUSH2 0x17A9 DUP6 DUP3 DUP7 ADD PUSH2 0x1618 JUMP JUMPDEST SWAP3 POP POP PUSH1 0x20 PUSH2 0x17BA DUP6 DUP3 DUP7 ADD PUSH2 0x1618 JUMP JUMPDEST SWAP2 POP POP SWAP3 POP SWAP3 SWAP1 POP JUMP JUMPDEST PUSH1 0x0 DUP1 PUSH1 0x0 PUSH1 0x60 DUP5 DUP7 SUB SLT ISZERO PUSH2 0x17D9 JUMPI PUSH1 0x0 DUP1 REVERT JUMPDEST PUSH1 0x0 PUSH2 0x17E7 DUP7 DUP3 DUP8 ADD PUSH2 0x1603 JUMP JUMPDEST SWAP4 POP POP PUSH1 0x20 PUSH2 0x17F8 DUP7 DUP3 DUP8 ADD PUSH2 0x1603 JUMP JUMPDEST SWAP3 POP POP PUSH1 0x40 PUSH2 0x1809 DUP7 DUP3 DUP8 ADD PUSH2 0x1603 JUMP JUMPDEST SWAP2 POP POP SWAP3 POP SWAP3 POP SWAP3 JUMP JUMPDEST PUSH2 0x181C DUP2 PUSH2 0x1E22 JUMP JUMPDEST DUP3 MSTORE POP POP JUMP JUMPDEST PUSH2 0x182B DUP2 PUSH2 0x1D82 JUMP JUMPDEST DUP3 MSTORE POP POP JUMP JUMPDEST PUSH2 0x183A DUP2 PUSH2 0x1D82 JUMP JUMPDEST DUP3 MSTORE POP POP JUMP JUMPDEST PUSH2 0x1849 DUP2 PUSH2 0x1D94 JUMP JUMPDEST DUP3 MSTORE POP POP JUMP JUMPDEST PUSH2 0x1858 DUP2 PUSH2 0x1E34 JUMP JUMPDEST DUP3 MSTORE POP POP JUMP JUMPDEST PUSH2 0x1867 DUP2 PUSH2 0x1DC0 JUMP JUMPDEST DUP3 MSTORE POP POP JUMP JUMPDEST PUSH1 0x0 PUSH2 0x187A PUSH1 0xD DUP4 PUSH2 0x1D71 JUMP JUMPDEST SWAP2 POP PUSH32 0x4E6F7420746865206F776E657200000000000000000000000000000000000000 PUSH1 0x0 DUP4 ADD MSTORE PUSH1 0x20 DUP3 ADD SWAP1 POP SWAP2 SWAP1 POP JUMP JUMPDEST PUSH1 0x80 DUP3 ADD PUSH1 0x0 DUP3 ADD MLOAD PUSH2 0x18C3 PUSH1 0x0 DUP6 ADD DUP3 PUSH2 0x1B02 JUMP JUMPDEST POP PUSH1 0x20 DUP3 ADD MLOAD PUSH2 0x18D6 PUSH1 0x20 DUP6 ADD DUP3 PUSH2 0x1822 JUMP JUMPDEST POP PUSH1 0x40 DUP3 ADD MLOAD PUSH2 0x18E9 PUSH1 0x40 DUP6 ADD DUP3 PUSH2 0x1AC6 JUMP JUMPDEST POP PUSH1 0x60 DUP3 ADD MLOAD PUSH2 0x18FC PUSH1 0x60 DUP6 ADD DUP3 PUSH2 0x1AC6 JUMP JUMPDEST POP POP POP POP JUMP JUMPDEST PUSH1 0xA0 DUP3 ADD PUSH1 0x0 DUP3 ADD MLOAD PUSH2 0x1918 PUSH1 0x0 DUP6 ADD DUP3 PUSH2 0x1B02 JUMP JUMPDEST POP PUSH1 0x20 DUP3 ADD MLOAD PUSH2 0x192B PUSH1 0x20 DUP6 ADD DUP3 PUSH2 0x1AC6 JUMP JUMPDEST POP PUSH1 0x40 DUP3 ADD MLOAD PUSH2 0x193E PUSH1 0x40 DUP6 ADD DUP3 PUSH2 0x1B02 JUMP JUMPDEST POP PUSH1 0x60 DUP3 ADD MLOAD PUSH2 0x1951 PUSH1 0x60 DUP6 ADD DUP3 PUSH2 0x1B02 JUMP JUMPDEST POP PUSH1 0x80 DUP3 ADD MLOAD PUSH2 0x1964 PUSH1 0x80 DUP6 ADD DUP3 PUSH2 0x1B02 JUMP JUMPDEST POP POP POP POP JUMP JUMPDEST PUSH1 0xC0 DUP3 ADD PUSH1 0x0 DUP3 ADD MLOAD PUSH2 0x1980 PUSH1 0x0 DUP6 ADD DUP3 PUSH2 0x1B02 JUMP JUMPDEST POP PUSH1 0x20 DUP3 ADD MLOAD PUSH2 0x1993 PUSH1 0x20 DUP6 ADD DUP3 PUSH2 0x1B02 JUMP JUMPDEST POP PUSH1 0x40 DUP3 ADD MLOAD PUSH2 0x19A6 PUSH1 0x40 DUP6 ADD DUP3 PUSH2 0x1B02 JUMP JUMPDEST POP PUSH1 0x60 DUP3 ADD MLOAD PUSH2 0x19B9 PUSH1 0x60 DUP6 ADD DUP3 PUSH2 0x1B02 JUMP JUMPDEST POP PUSH1 0x80 DUP3 ADD MLOAD PUSH2 0x19CC PUSH1 0x80 DUP6 ADD DUP3 PUSH2 0x1B02 JUMP JUMPDEST POP PUSH1 0xA0 DUP3 ADD MLOAD PUSH2 0x19DF PUSH1 0xA0 DUP6 ADD DUP3 PUSH2 0x1B02 JUMP JUMPDEST POP POP POP POP JUMP JUMPDEST PUSH2 0x160 DUP3 ADD PUSH1 0x0 DUP3 ADD MLOAD PUSH2 0x19FC PUSH1 0x0 DUP6 ADD DUP3 PUSH2 0x1822 JUMP JUMPDEST POP PUSH1 0x20 DUP3 ADD MLOAD PUSH2 0x1A0F PUSH1 0x20 DUP6 ADD DUP3 PUSH2 0x1822 JUMP JUMPDEST POP PUSH1 0x40 DUP3 ADD MLOAD PUSH2 0x1A22 PUSH1 0x40 DUP6 ADD DUP3 PUSH2 0x1AE4 JUMP JUMPDEST POP PUSH1 0x60 DUP3 ADD MLOAD PUSH2 0x1A35 PUSH1 0x60 DUP6 ADD DUP3 PUSH2 0x185E JUMP JUMPDEST POP PUSH1 0x80 DUP3 ADD MLOAD PUSH2 0x1A48 PUSH1 0x80 DUP6 ADD DUP3 PUSH2 0x185E JUMP JUMPDEST POP PUSH1 0xA0 DUP3 ADD MLOAD PUSH2 0x1A5B PUSH1 0xA0 DUP6 ADD DUP3 PUSH2 0x1B02 JUMP JUMPDEST POP PUSH1 0xC0 DUP3 ADD MLOAD PUSH2 0x1A6E PUSH1 0xC0 DUP6 ADD DUP3 PUSH2 0x1B02 JUMP JUMPDEST POP PUSH1 0xE0 DUP3 ADD MLOAD PUSH2 0x1A81 PUSH1 0xE0 DUP6 ADD DUP3 PUSH2 0x1B02 JUMP JUMPDEST POP PUSH2 0x100 DUP3 ADD MLOAD PUSH2 0x1A96 PUSH2 0x100 DUP6 ADD DUP3 PUSH2 0x1B02 JUMP JUMPDEST POP PUSH2 0x120 DUP3 ADD MLOAD PUSH2 0x1AAB PUSH2 0x120 DUP6 ADD DUP3 PUSH2 0x1822 JUMP JUMPDEST POP PUSH2 0x140 DUP3 ADD MLOAD PUSH2 0x1AC0 PUSH2 0x140 DUP6 ADD DUP3 PUSH2 0x1B02 JUMP JUMPDEST POP POP POP POP JUMP JUMPDEST PUSH2 0x1ACF DUP2 PUSH2 0x1DCD JUMP JUMPDEST DUP3 MSTORE POP POP JUMP JUMPDEST PUSH2 0x1ADE DUP2 PUSH2 0x1DCD JUMP JUMPDEST DUP3 MSTORE POP POP JUMP JUMPDEST PUSH2 0x1AED DUP2 PUSH2 0x1E09 JUMP JUMPDEST DUP3 MSTORE POP POP JUMP JUMPDEST PUSH2 0x1AFC DUP2 PUSH2 0x1E09 JUMP JUMPDEST DUP3 MSTORE POP POP JUMP JUMPDEST PUSH2 0x1B0B DUP2 PUSH2 0x1E18 JUMP JUMPDEST DUP3 MSTORE POP POP JUMP JUMPDEST PUSH2 0x1B1A DUP2 PUSH2 0x1E18 JUMP JUMPDEST DUP3 MSTORE POP POP JUMP JUMPDEST PUSH1 0x0 PUSH1 0x20 DUP3 ADD SWAP1 POP PUSH2 0x1B35 PUSH1 0x0 DUP4 ADD DUP5 PUSH2 0x1831 JUMP JUMPDEST SWAP3 SWAP2 POP POP JUMP JUMPDEST PUSH1 0x0 PUSH1 0x60 DUP3 ADD SWAP1 POP PUSH2 0x1B50 PUSH1 0x0 DUP4 ADD DUP7 PUSH2 0x1813 JUMP JUMPDEST PUSH2 0x1B5D PUSH1 0x20 DUP4 ADD DUP6 PUSH2 0x1831 JUMP JUMPDEST PUSH2 0x1B6A PUSH1 0x40 DUP4 ADD DUP5 PUSH2 0x1B11 JUMP JUMPDEST SWAP5 SWAP4 POP POP POP POP JUMP JUMPDEST PUSH1 0x0 PUSH1 0x60 DUP3 ADD SWAP1 POP PUSH2 0x1B87 PUSH1 0x0 DUP4 ADD DUP7 PUSH2 0x1831 JUMP JUMPDEST PUSH2 0x1B94 PUSH1 0x20 DUP4 ADD DUP6 PUSH2 0x1813 JUMP JUMPDEST PUSH2 0x1BA1 PUSH1 0x40 DUP4 ADD DUP5 PUSH2 0x1B11 JUMP JUMPDEST SWAP5 SWAP4 POP POP POP POP JUMP JUMPDEST PUSH1 0x0 PUSH1 0x80 DUP3 ADD SWAP1 POP PUSH2 0x1BBE PUSH1 0x0 DUP4 ADD DUP8 PUSH2 0x1831 JUMP JUMPDEST PUSH2 0x1BCB PUSH1 0x20 DUP4 ADD DUP7 PUSH2 0x1AD5 JUMP JUMPDEST PUSH2 0x1BD8 PUSH1 0x40 DUP4 ADD DUP6 PUSH2 0x1831 JUMP JUMPDEST PUSH2 0x1BE5 PUSH1 0x60 DUP4 ADD DUP5 PUSH2 0x1831 JUMP JUMPDEST SWAP6 SWAP5 POP POP POP POP POP JUMP JUMPDEST PUSH1 0x0 PUSH1 0x20 DUP3 ADD SWAP1 POP PUSH2 0x1C03 PUSH1 0x0 DUP4 ADD DUP5 PUSH2 0x1840 JUMP JUMPDEST SWAP3 SWAP2 POP POP JUMP JUMPDEST PUSH1 0x0 PUSH1 0x20 DUP3 ADD SWAP1 POP PUSH2 0x1C1E PUSH1 0x0 DUP4 ADD DUP5 PUSH2 0x184F JUMP JUMPDEST SWAP3 SWAP2 POP POP JUMP JUMPDEST PUSH1 0x0 PUSH1 0x20 DUP3 ADD SWAP1 POP DUP2 DUP2 SUB PUSH1 0x0 DUP4 ADD MSTORE PUSH2 0x1C3D DUP2 PUSH2 0x186D JUMP JUMPDEST SWAP1 POP SWAP2 SWAP1 POP JUMP JUMPDEST PUSH1 0x0 PUSH1 0x80 DUP3 ADD SWAP1 POP PUSH2 0x1C59 PUSH1 0x0 DUP4 ADD DUP5 PUSH2 0x18AD JUMP JUMPDEST SWAP3 SWAP2 POP POP JUMP JUMPDEST PUSH1 0x0 PUSH1 0xA0 DUP3 ADD SWAP1 POP PUSH2 0x1C74 PUSH1 0x0 DUP4 ADD DUP5 PUSH2 0x1902 JUMP JUMPDEST SWAP3 SWAP2 POP POP JUMP JUMPDEST PUSH1 0x0 PUSH1 0xC0 DUP3 ADD SWAP1 POP PUSH2 0x1C8F PUSH1 0x0 DUP4 ADD DUP5 PUSH2 0x196A JUMP JUMPDEST SWAP3 SWAP2 POP POP JUMP JUMPDEST PUSH1 0x0 PUSH2 0x160 DUP3 ADD SWAP1 POP PUSH2 0x1CAB PUSH1 0x0 DUP4 ADD DUP5 PUSH2 0x19E5 JUMP JUMPDEST SWAP3 SWAP2 POP POP JUMP JUMPDEST PUSH1 0x0 PUSH1 0x60 DUP3 ADD SWAP1 POP PUSH2 0x1CC6 PUSH1 0x0 DUP4 ADD DUP7 PUSH2 0x1AD5 JUMP JUMPDEST PUSH2 0x1CD3 PUSH1 0x20 DUP4 ADD DUP6 PUSH2 0x1B11 JUMP JUMPDEST PUSH2 0x1CE0 PUSH1 0x40 DUP4 ADD DUP5 PUSH2 0x1B11 JUMP JUMPDEST SWAP5 SWAP4 POP POP POP POP JUMP JUMPDEST PUSH1 0x0 PUSH1 0x20 DUP3 ADD SWAP1 POP PUSH2 0x1CFD PUSH1 0x0 DUP4 ADD DUP5 PUSH2 0x1AF3 JUMP JUMPDEST SWAP3 SWAP2 POP POP JUMP JUMPDEST PUSH1 0x0 PUSH1 0x80 DUP3 ADD SWAP1 POP PUSH2 0x1D18 PUSH1 0x0 DUP4 ADD DUP8 PUSH2 0x1B11 JUMP JUMPDEST PUSH2 0x1D25 PUSH1 0x20 DUP4 ADD DUP7 PUSH2 0x1AD5 JUMP JUMPDEST PUSH2 0x1D32 PUSH1 0x40 DUP4 ADD DUP6 PUSH2 0x1B11 JUMP JUMPDEST PUSH2 0x1D3F PUSH1 0x60 DUP4 ADD DUP5 PUSH2 0x1B11 JUMP JUMPDEST SWAP6 SWAP5 POP POP POP POP POP JUMP JUMPDEST PUSH1 0x0 PUSH1 0x40 DUP3 ADD SWAP1 POP PUSH2 0x1D5D PUSH1 0x0 DUP4 ADD DUP6 PUSH2 0x1B11 JUMP JUMPDEST PUSH2 0x1D6A PUSH1 0x20 DUP4 ADD DUP5 PUSH2 0x1B11 JUMP JUMPDEST SWAP4 SWAP3 POP POP POP JUMP JUMPDEST PUSH1 0x0 DUP3 DUP3 MSTORE PUSH1 0x20 DUP3 ADD SWAP1 POP SWAP3 SWAP2 POP POP JUMP JUMPDEST PUSH1 0x0 PUSH2 0x1D8D DUP3 PUSH2 0x1DE9 JUMP JUMPDEST SWAP1 POP SWAP2 SWAP1 POP JUMP JUMPDEST PUSH1 0x0 PUSH32 0xFFFFFFFF00000000000000000000000000000000000000000000000000000000 DUP3 AND SWAP1 POP SWAP2 SWAP1 POP JUMP JUMPDEST PUSH1 0x0 DUP2 PUSH1 0x2 SIGNEXTEND SWAP1 POP SWAP2 SWAP1 POP JUMP JUMPDEST PUSH1 0x0 PUSH16 0xFFFFFFFFFFFFFFFFFFFFFFFFFFFFFFFF DUP3 AND SWAP1 POP SWAP2 SWAP1 POP JUMP JUMPDEST PUSH1 0x0 PUSH20 0xFFFFFFFFFFFFFFFFFFFFFFFFFFFFFFFFFFFFFFFF DUP3 AND SWAP1 POP SWAP2 SWAP1 POP JUMP JUMPDEST PUSH1 0x0 PUSH3 0xFFFFFF DUP3 AND SWAP1 POP SWAP2 SWAP1 POP JUMP JUMPDEST PUSH1 0x0 DUP2 SWAP1 POP SWAP2 SWAP1 POP JUMP JUMPDEST PUSH1 0x0 PUSH2 0x1E2D DUP3 PUSH2 0x1E58 JUMP JUMPDEST SWAP1 POP SWAP2 SWAP1 POP JUMP JUMPDEST PUSH1 0x0 PUSH2 0x1E3F DUP3 PUSH2 0x1E46 JUMP JUMPDEST SWAP1 POP SWAP2 SWAP1 POP JUMP JUMPDEST PUSH1 0x0 PUSH2 0x1E51 DUP3 PUSH2 0x1DE9 JUMP JUMPDEST SWAP1 POP SWAP2 SWAP1 POP JUMP JUMPDEST PUSH1 0x0 PUSH2 0x1E63 DUP3 PUSH2 0x1E6A JUMP JUMPDEST SWAP1 POP SWAP2 SWAP1 POP JUMP JUMPDEST PUSH1 0x0 PUSH2 0x1E75 DUP3 PUSH2 0x1DE9 JUMP JUMPDEST SWAP1 POP SWAP2 SWAP1 POP JUMP JUMPDEST PUSH2 0x1E85 DUP2 PUSH2 0x1D82 JUMP JUMPDEST DUP2 EQ PUSH2 0x1E90 JUMPI PUSH1 0x0 DUP1 REVERT JUMPDEST POP JUMP JUMPDEST PUSH2 0x1E9C DUP2 PUSH2 0x1DCD JUMP JUMPDEST DUP2 EQ PUSH2 0x1EA7 JUMPI PUSH1 0x0 DUP1 REVERT JUMPDEST POP JUMP JUMPDEST PUSH2 0x1EB3 DUP2 PUSH2 0x1E18 JUMP JUMPDEST DUP2 EQ PUSH2 0x1EBE JUMPI PUSH1 0x0 DUP1 REVERT JUMPDEST POP JUMP INVALID LOG2 PUSH5 0x6970667358 0x22 SLT KECCAK256 0xC1 SWAP7 PUSH13 0x33AB9182EDC3F11F09BA584A2 EQ 0x4B SIGNEXTEND 0xF7 0xE1 DUP10 0xDA 0xDF 0x1F ADDRESS 0xC4 ADD 0xE5 SWAP12 PUSH5 0xE864736F6C PUSH4 0x43000706 STOP CALLER "
        },
        "methodIdentifiers": {
          "DAI()": "e0bab4c4",
          "USDC()": "89a30271",
          "collectAllFees(uint256)": "46ce96dd",
          "decreaseLiquidityInHalf(uint256)": "8187b4c5",
          "deposits(uint256)": "b02c43d0",
          "increaseLiquidityCurrentRange(uint256,uint256,uint256)": "617d6d6e",
          "mintNewPosition()": "306d9c61",
          "nonfungiblePositionManager()": "b44a2722",
          "onERC721Received(address,address,uint256,bytes)": "150b7a02",
          "poolFee()": "089fe6aa",
          "retrieveNFT(uint256)": "0a1d7c5f"
        }
      }
    }
  }
}