{
  "contractName": "DEX",
  "abi": [
    {
      "inputs": [
        {
          "internalType": "address[]",
          "name": "_tokenAddr",
          "type": "address[]"
        }
      ],
      "stateMutability": "nonpayable",
      "type": "constructor"
    },
    {
      "anonymous": false,
      "inputs": [
        {
          "indexed": false,
          "internalType": "address",
          "name": "account",
          "type": "address"
        },
        {
          "indexed": false,
          "internalType": "address",
          "name": "_tokenAddr",
          "type": "address"
        },
        {
          "indexed": false,
          "internalType": "uint256",
          "name": "_cost",
          "type": "uint256"
        },
        {
          "indexed": false,
          "internalType": "uint256",
          "name": "_amount",
          "type": "uint256"
        }
      ],
      "name": "buy",
      "type": "event"
    },
    {
      "anonymous": false,
      "inputs": [
        {
          "indexed": false,
          "internalType": "address",
          "name": "account",
          "type": "address"
        },
        {
          "indexed": false,
          "internalType": "address",
          "name": "_tokenAddr",
          "type": "address"
        },
        {
          "indexed": false,
          "internalType": "uint256",
          "name": "_cost",
          "type": "uint256"
        },
        {
          "indexed": false,
          "internalType": "uint256",
          "name": "_amount",
          "type": "uint256"
        }
      ],
      "name": "sell",
      "type": "event"
    },
    {
      "inputs": [
        {
          "internalType": "address",
          "name": "",
          "type": "address"
        }
      ],
      "name": "supportedTokenAddr",
      "outputs": [
        {
          "internalType": "bool",
          "name": "",
          "type": "bool"
        }
      ],
      "stateMutability": "view",
      "type": "function"
    },
    {
      "inputs": [
        {
          "internalType": "address",
          "name": "_tokenAddr",
          "type": "address"
        },
        {
          "internalType": "uint256",
          "name": "_cost",
          "type": "uint256"
        },
        {
          "internalType": "uint256",
          "name": "_amount",
          "type": "uint256"
        }
      ],
      "name": "buyToken",
      "outputs": [],
      "stateMutability": "payable",
      "type": "function"
    },
    {
      "inputs": [
        {
          "internalType": "address",
          "name": "_tokenAddr",
          "type": "address"
        },
        {
          "internalType": "uint256",
          "name": "_cost",
          "type": "uint256"
        },
        {
          "internalType": "uint256",
          "name": "_amount",
          "type": "uint256"
        }
      ],
      "name": "sellToken",
      "outputs": [],
      "stateMutability": "nonpayable",
      "type": "function"
    }
  ],
  "bytecode": "0x60806040523480156200001157600080fd5b5060405162000e5838038062000e588339818101604052810190620000379190620001b3565b60005b8151811015620000f257600160008084848151811062000083577f4e487b7100000000000000000000000000000000000000000000000000000000600052603260045260246000fd5b602002602001015173ffffffffffffffffffffffffffffffffffffffff1673ffffffffffffffffffffffffffffffffffffffff16815260200190815260200160002060006101000a81548160ff0219169083151502179055508080620000e990620002c4565b9150506200003a565b50506200039b565b6000620001116200010b8462000221565b620001f8565b905080838252602082019050828560208602820111156200013157600080fd5b60005b858110156200016557816200014a88826200016f565b84526020840193506020830192505060018101905062000134565b5050509392505050565b600081519050620001808162000381565b92915050565b600082601f8301126200019857600080fd5b8151620001aa848260208601620000fa565b91505092915050565b600060208284031215620001c657600080fd5b600082015167ffffffffffffffff811115620001e157600080fd5b620001ef8482850162000186565b91505092915050565b60006200020462000217565b90506200021282826200028e565b919050565b6000604051905090565b600067ffffffffffffffff8211156200023f576200023e62000341565b5b602082029050602081019050919050565b60006200025d8262000264565b9050919050565b600073ffffffffffffffffffffffffffffffffffffffff82169050919050565b6000819050919050565b620002998262000370565b810181811067ffffffffffffffff82111715620002bb57620002ba62000341565b5b80604052505050565b6000620002d18262000284565b91507fffffffffffffffffffffffffffffffffffffffffffffffffffffffffffffffff82141562000307576200030662000312565b5b600182019050919050565b7f4e487b7100000000000000000000000000000000000000000000000000000000600052601160045260246000fd5b7f4e487b7100000000000000000000000000000000000000000000000000000000600052604160045260246000fd5b6000601f19601f8301169050919050565b6200038c8162000250565b81146200039857600080fd5b50565b610aad80620003ab6000396000f3fe6080604052600436106100345760003560e01c8063096db4d6146100395780633e11741f14610076578063e671499b1461009f575b600080fd5b34801561004557600080fd5b50610060600480360381019061005b91906105a5565b6100bb565b60405161006d9190610843565b60405180910390f35b34801561008257600080fd5b5061009d600480360381019061009891906105ce565b6100db565b005b6100b960048036038101906100b491906105ce565b61036e565b005b60006020528060005260406000206000915054906101000a900460ff1681565b6000839050828173ffffffffffffffffffffffffffffffffffffffff166370a08231336040518263ffffffff1660e01b815260040161011a9190610783565b60206040518083038186803b15801561013257600080fd5b505afa158015610146573d6000803e3d6000fd5b505050506040513d601f19601f8201168201806040525081019061016a9190610646565b10156101ab576040517f08c379a00000000000000000000000000000000000000000000000000000000081526004016101a29061087e565b60405180910390fd5b814710156101ee576040517f08c379a00000000000000000000000000000000000000000000000000000000081526004016101e59061085e565b60405180910390fd5b8073ffffffffffffffffffffffffffffffffffffffff166323b872dd3330866040518463ffffffff1660e01b815260040161022b9392919061079e565b602060405180830381600087803b15801561024557600080fd5b505af1158015610259573d6000803e3d6000fd5b505050506040513d601f19601f8201168201806040525081019061027d919061061d565b5060003373ffffffffffffffffffffffffffffffffffffffff16836040516102a49061076e565b60006040518083038185875af1925050503d80600081146102e1576040519150601f19603f3d011682016040523d82523d6000602084013e6102e6565b606091505b505090508061032a576040517f08c379a0000000000000000000000000000000000000000000000000000000008152600401610321906108be565b60405180910390fd5b7f31de7d15e9e6c3b6f319c842341b735c0f9d7a5d06944314495f952400bd74c03386868660405161035f94939291906107d5565b60405180910390a15050505050565b60008390508234146103b5576040517f08c379a00000000000000000000000000000000000000000000000000000000081526004016103ac906108de565b60405180910390fd5b818173ffffffffffffffffffffffffffffffffffffffff166370a08231306040518263ffffffff1660e01b81526004016103ef9190610783565b60206040518083038186803b15801561040757600080fd5b505afa15801561041b573d6000803e3d6000fd5b505050506040513d601f19601f8201168201806040525081019061043f9190610646565b1015610480576040517f08c379a00000000000000000000000000000000000000000000000000000000081526004016104779061089e565b60405180910390fd5b8073ffffffffffffffffffffffffffffffffffffffff1663a9059cbb33846040518363ffffffff1660e01b81526004016104bb92919061081a565b602060405180830381600087803b1580156104d557600080fd5b505af11580156104e9573d6000803e3d6000fd5b505050506040513d601f19601f8201168201806040525081019061050d919061061d565b507fa9d424e2b661a4cf6090e4849fd2d81c17106afa4b26188dcc493a69ea4c2b5e3385858560405161054394939291906107d5565b60405180910390a150505050565b60008135905061056081610a32565b92915050565b60008151905061057581610a49565b92915050565b60008135905061058a81610a60565b92915050565b60008151905061059f81610a60565b92915050565b6000602082840312156105b757600080fd5b60006105c584828501610551565b91505092915050565b6000806000606084860312156105e357600080fd5b60006105f186828701610551565b93505060206106028682870161057b565b92505060406106138682870161057b565b9150509250925092565b60006020828403121561062f57600080fd5b600061063d84828501610566565b91505092915050565b60006020828403121561065857600080fd5b600061066684828501610590565b91505092915050565b6106788161091a565b82525050565b6106878161092c565b82525050565b600061069a601e83610909565b91506106a582610962565b602082019050919050565b60006106bd601a83610909565b91506106c88261098b565b602082019050919050565b60006106e06000836108fe565b91506106eb826109b4565b600082019050919050565b6000610703600e83610909565b915061070e826109b7565b602082019050919050565b6000610726601383610909565b9150610731826109e0565b602082019050919050565b6000610749601183610909565b915061075482610a09565b602082019050919050565b61076881610958565b82525050565b6000610779826106d3565b9150819050919050565b6000602082019050610798600083018461066f565b92915050565b60006060820190506107b3600083018661066f565b6107c0602083018561066f565b6107cd604083018461075f565b949350505050565b60006080820190506107ea600083018761066f565b6107f7602083018661066f565b610804604083018561075f565b610811606083018461075f565b95945050505050565b600060408201905061082f600083018561066f565b61083c602083018461075f565b9392505050565b6000602082019050610858600083018461067e565b92915050565b600060208201905081810360008301526108778161068d565b9050919050565b60006020820190508181036000830152610897816106b0565b9050919050565b600060208201905081810360008301526108b7816106f6565b9050919050565b600060208201905081810360008301526108d781610719565b9050919050565b600060208201905081810360008301526108f78161073c565b9050919050565b600081905092915050565b600082825260208201905092915050565b600061092582610938565b9050919050565b60008115159050919050565b600073ffffffffffffffffffffffffffffffffffffffff82169050919050565b6000819050919050565b7f44455820646f6573206e6f74206861766520656e6f7567682066756e64730000600082015250565b7f496e73756666696369656e7420746f6b656e2062616c616e6365000000000000600082015250565b50565b7f546f6b656e20736f6c64206f7574000000000000000000000000000000000000600082015250565b7f455448207472616e73666572206661696c656400000000000000000000000000600082015250565b7f496e73756666696369656e742066756e64000000000000000000000000000000600082015250565b610a3b8161091a565b8114610a4657600080fd5b50565b610a528161092c565b8114610a5d57600080fd5b50565b610a6981610958565b8114610a7457600080fd5b5056fea2646970667358221220b8491fe3bbde565e96355fb7157a430021bb355b5453c0da39d4225ae28fe4a764736f6c63430008040033",
  "immutableReferences": {},
  "source": "// SPDX-License-Identifier: MIT\npragma solidity ^0.8.4; \n\nimport \"./ERC20.sol\";\n\n// DEX コントラクト\ncontract DEX {\n\n    event buy(address account, address _tokenAddr, uint256 _cost, uint256 _amount);\n    event sell(address account, address _tokenAddr, uint256 _cost, uint256 _amount);\n\n    mapping(address => bool) public supportedTokenAddr;\n\n    modifier supportsToken(address _tokenAddr) {\n        require(supportedTokenAddr[_tokenAddr] == true, \"This token is not supported!!\");\n        _;\n    }\n\n    constructor(address[] memory _tokenAddr) {\n        for(uint i = 0; i < _tokenAddr.length; i++) {\n            supportedTokenAddr[_tokenAddr[i]] = true; \n        }\n    }\n\n    function buyToken(address _tokenAddr, uint256 _cost, uint _amount) external payable {\n        ERC20 token = ERC20(_tokenAddr);\n        \n        require(msg.value == _cost, \"Insufficient fund\");\n        require(token.balanceOf(address(this)) >= _amount, \"Token sold out\");\n        // call transfer method\n        token.transfer(msg.sender, _amount);\n        emit buy(msg.sender, _tokenAddr, _cost, _amount);\n    }\n\n    function sellToken(address _tokenAddr, uint256 _cost, uint _amount) external {\n        ERC20 token = ERC20(_tokenAddr);\n        \n        require(token.balanceOf(msg.sender) >= _cost, \"Insufficient token balance\");\n        require(address(this).balance >= _amount, \"DEX does not have enough funds\");\n        token.transferFrom(msg.sender, address(this), _cost);\n        (bool success, ) = payable(msg.sender).call{ value: _amount }(\"\");\n        require(success, \"ETH transfer failed\");\n        emit sell(msg.sender, _tokenAddr, _cost, _amount);\n    }\n}",
  "sourcePath": "/Users/harukikondo/git/SwapExample/backend/truffle/contracts/DEX.sol",
  "compiler": {
    "name": "solc",
    "version": "0.8.4+commit.c7e474f2.Emscripten.clang"
  },
  "schemaVersion": "3.2.0",
  "updatedAt": "2022-05-07T04:50:53.731Z",
  "devdoc": {
    "kind": "dev",
    "methods": {},
    "version": 1
  },
  "userdoc": {
    "kind": "user",
    "methods": {},
    "version": 1
  }
}