{
  "_format": "hh-sol-artifact-1",
  "contractName": "MultihopSwap",
  "sourceName": "contracts/MultihopSwap.sol",
  "abi": [
    {
      "inputs": [
        {
          "internalType": "contract ISwapRouter",
          "name": "_swapRouter",
          "type": "address"
        }
      ],
      "stateMutability": "nonpayable",
      "type": "constructor"
    },
    {
      "inputs": [],
      "name": "DAI",
      "outputs": [
        {
          "internalType": "address",
          "name": "",
          "type": "address"
        }
      ],
      "stateMutability": "view",
      "type": "function"
    },
    {
      "inputs": [],
      "name": "USDC",
      "outputs": [
        {
          "internalType": "address",
          "name": "",
          "type": "address"
        }
      ],
      "stateMutability": "view",
      "type": "function"
    },
    {
      "inputs": [],
      "name": "WETH9",
      "outputs": [
        {
          "internalType": "address",
          "name": "",
          "type": "address"
        }
      ],
      "stateMutability": "view",
      "type": "function"
    },
    {
      "inputs": [],
      "name": "poolFee",
      "outputs": [
        {
          "internalType": "uint24",
          "name": "",
          "type": "uint24"
        }
      ],
      "stateMutability": "view",
      "type": "function"
    },
    {
      "inputs": [
        {
          "internalType": "uint256",
          "name": "amountIn",
          "type": "uint256"
        }
      ],
      "name": "swapExactInputMultihop",
      "outputs": [
        {
          "internalType": "uint256",
          "name": "amountOut",
          "type": "uint256"
        }
      ],
      "stateMutability": "nonpayable",
      "type": "function"
    },
    {
      "inputs": [
        {
          "internalType": "uint256",
          "name": "amountOut",
          "type": "uint256"
        },
        {
          "internalType": "uint256",
          "name": "amountInMaximum",
          "type": "uint256"
        }
      ],
      "name": "swapExactOutputMultihop",
      "outputs": [
        {
          "internalType": "uint256",
          "name": "amountIn",
          "type": "uint256"
        }
      ],
      "stateMutability": "nonpayable",
      "type": "function"
    },
    {
      "inputs": [],
      "name": "swapRouter",
      "outputs": [
        {
          "internalType": "contract ISwapRouter",
          "name": "",
          "type": "address"
        }
      ],
      "stateMutability": "view",
      "type": "function"
    }
  ],
  "bytecode": "0x60a060405234801561001057600080fd5b50604051620010113803806200101183398181016040528101906100349190610086565b8073ffffffffffffffffffffffffffffffffffffffff1660808173ffffffffffffffffffffffffffffffffffffffff1660601b815250505061010a565b600081519050610080816100f3565b92915050565b60006020828403121561009857600080fd5b60006100a684828501610071565b91505092915050565b60006100ba826100d3565b9050919050565b60006100cc826100af565b9050919050565b600073ffffffffffffffffffffffffffffffffffffffff82169050919050565b6100fc816100c1565b811461010757600080fd5b50565b60805160601c610ed062000141600039806101ba5280610289528061035652806103d8528061044e528061051e5250610ed06000f3fe608060405234801561001057600080fd5b506004361061007d5760003560e01c806389a302711161005b57806389a30271146100ee578063c31c9c071461010c578063e0bab4c41461012a578063edd83557146101485761007d565b8063089fe6aa146100825780633b85cf6a146100a05780634aa4a4fc146100d0575b600080fd5b61008a610178565b6040516100979190610d2e565b60405180910390f35b6100ba60048036038101906100b59190610a6c565b61017e565b6040516100c79190610d49565b60405180910390f35b6100d86103a6565b6040516100e59190610cb4565b60405180910390f35b6100f66103be565b6040516101039190610cb4565b60405180910390f35b6101146103d6565b6040516101219190610ccf565b60405180910390f35b6101326103fa565b60405161013f9190610cb4565b60405180910390f35b610162600480360381019061015d9190610a1a565b610412565b60405161016f9190610d49565b60405180910390f35b610bb881565b60006101a0736b175474e89094c44da98b954eedeac495271d0f3330856105cf565b6101df736b175474e89094c44da98b954eedeac495271d0f7f0000000000000000000000000000000000000000000000000000000000000000846107ef565b60006040518060a0016040528073c02aaa39b223fe8d0a0e5c4f27ead9083c756cc2610bb873a0b86991c6218b36c1d19d4a2e9eb0ce3606eb48610bb8736b175474e89094c44da98b954eedeac495271d0f604051602001610245959493929190610c55565b60405160208183030381529060405281526020013373ffffffffffffffffffffffffffffffffffffffff1681526020014281526020018581526020018481525090507f000000000000000000000000000000000000000000000000000000000000000073ffffffffffffffffffffffffffffffffffffffff1663f28c0498826040518263ffffffff1660e01b81526004016102e09190610d0c565b602060405180830381600087803b1580156102fa57600080fd5b505af115801561030e573d6000803e3d6000fd5b505050506040513d601f19601f820116820180604052508101906103329190610a43565b91508282101561039f5761037c736b175474e89094c44da98b954eedeac495271d0f7f000000000000000000000000000000000000000000000000000000000000000060006107ef565b61039e736b175474e89094c44da98b954eedeac495271d0f30338587036105cf565b5b5092915050565b73c02aaa39b223fe8d0a0e5c4f27ead9083c756cc281565b73a0b86991c6218b36c1d19d4a2e9eb0ce3606eb4881565b7f000000000000000000000000000000000000000000000000000000000000000081565b736b175474e89094c44da98b954eedeac495271d0f81565b6000610434736b175474e89094c44da98b954eedeac495271d0f3330856105cf565b610473736b175474e89094c44da98b954eedeac495271d0f7f0000000000000000000000000000000000000000000000000000000000000000846107ef565b60006040518060a00160405280736b175474e89094c44da98b954eedeac495271d0f610bb873a0b86991c6218b36c1d19d4a2e9eb0ce3606eb48610bb873c02aaa39b223fe8d0a0e5c4f27ead9083c756cc26040516020016104d9959493929190610c55565b60405160208183030381529060405281526020013373ffffffffffffffffffffffffffffffffffffffff168152602001428152602001848152602001600081525090507f000000000000000000000000000000000000000000000000000000000000000073ffffffffffffffffffffffffffffffffffffffff1663c04b8d59826040518263ffffffff1660e01b81526004016105759190610cea565b602060405180830381600087803b15801561058f57600080fd5b505af11580156105a3573d6000803e3d6000fd5b505050506040513d601f19601f820116820180604052508101906105c79190610a43565b915050919050565b6000808573ffffffffffffffffffffffffffffffffffffffff166323b872dd60e01b868686604051602401808473ffffffffffffffffffffffffffffffffffffffff1681526020018373ffffffffffffffffffffffffffffffffffffffff1681526020018281526020019350505050604051602081830303815290604052907bffffffffffffffffffffffffffffffffffffffffffffffffffffffff19166020820180517bffffffffffffffffffffffffffffffffffffffffffffffffffffffff83818316178352505050506040518082805190602001908083835b602083106106ce57805182526020820191506020810190506020830392506106ab565b6001836020036101000a0380198251168184511680821785525050505050509050019150506000604051808303816000865af19150503d8060008114610730576040519150601f19603f3d011682016040523d82523d6000602084013e610735565b606091505b50915091508180156107755750600081511480610774575080806020019051602081101561076257600080fd5b81019080805190602001909291905050505b5b6107e7576040517f08c379a00000000000000000000000000000000000000000000000000000000081526004018080602001828103825260038152602001807f535446000000000000000000000000000000000000000000000000000000000081525060200191505060405180910390fd5b505050505050565b6000808473ffffffffffffffffffffffffffffffffffffffff1663095ea7b360e01b8585604051602401808373ffffffffffffffffffffffffffffffffffffffff16815260200182815260200192505050604051602081830303815290604052907bffffffffffffffffffffffffffffffffffffffffffffffffffffffff19166020820180517bffffffffffffffffffffffffffffffffffffffffffffffffffffffff83818316178352505050506040518082805190602001908083835b602083106108d057805182526020820191506020810190506020830392506108ad565b6001836020036101000a0380198251168184511680821785525050505050509050019150506000604051808303816000865af19150503d8060008114610932576040519150601f19603f3d011682016040523d82523d6000602084013e610937565b606091505b50915091508180156109775750600081511480610976575080806020019051602081101561096457600080fd5b81019080805190602001909291905050505b5b6109e9576040517f08c379a00000000000000000000000000000000000000000000000000000000081526004018080602001828103825260028152602001807f534100000000000000000000000000000000000000000000000000000000000081525060200191505060405180910390fd5b5050505050565b6000813590506109ff81610e83565b92915050565b600081519050610a1481610e83565b92915050565b600060208284031215610a2c57600080fd5b6000610a3a848285016109f0565b91505092915050565b600060208284031215610a5557600080fd5b6000610a6384828501610a05565b91505092915050565b60008060408385031215610a7f57600080fd5b6000610a8d858286016109f0565b9250506020610a9e858286016109f0565b9150509250929050565b610ab181610d80565b82525050565b610ac081610d80565b82525050565b610ad7610ad282610d80565b610e22565b82525050565b6000610ae882610d64565b610af28185610d6f565b9350610b02818560208601610def565b610b0b81610e58565b840191505092915050565b610b1f81610dcb565b82525050565b600060a0830160008301518482036000860152610b428282610add565b9150506020830151610b576020860182610aa8565b506040830151610b6a6040860182610c37565b506060830151610b7d6060860182610c37565b506080830151610b906080860182610c37565b508091505092915050565b600060a0830160008301518482036000860152610bb88282610add565b9150506020830151610bcd6020860182610aa8565b506040830151610be06040860182610c37565b506060830151610bf36060860182610c37565b506080830151610c066080860182610c37565b508091505092915050565b610c1a81610db2565b82525050565b610c31610c2c82610db2565b610e46565b82525050565b610c4081610dc1565b82525050565b610c4f81610dc1565b82525050565b6000610c618288610ac6565b601482019150610c718287610c20565b600382019150610c818286610ac6565b601482019150610c918285610c20565b600382019150610ca18284610ac6565b6014820191508190509695505050505050565b6000602082019050610cc96000830184610ab7565b92915050565b6000602082019050610ce46000830184610b16565b92915050565b60006020820190508181036000830152610d048184610b25565b905092915050565b60006020820190508181036000830152610d268184610b9b565b905092915050565b6000602082019050610d436000830184610c11565b92915050565b6000602082019050610d5e6000830184610c46565b92915050565b600081519050919050565b600082825260208201905092915050565b6000610d8b82610d92565b9050919050565b600073ffffffffffffffffffffffffffffffffffffffff82169050919050565b600062ffffff82169050919050565b6000819050919050565b6000610dd682610ddd565b9050919050565b6000610de882610d92565b9050919050565b60005b83811015610e0d578082015181840152602081019050610df2565b83811115610e1c576000848401525b50505050565b6000610e2d82610e34565b9050919050565b6000610e3f82610e76565b9050919050565b6000610e5182610e69565b9050919050565b6000601f19601f8301169050919050565b60008160e81b9050919050565b60008160601b9050919050565b610e8c81610dc1565b8114610e9757600080fd5b5056fea2646970667358221220b9af436493b87226a4e7b214cb16deaab9abdf8f00ccfe86de9e74067300aa3664736f6c63430007060033",
  "linkReferences": {},
  "deployedLinkReferences": {}
}