{
  "_format": "hh-sol-artifact-1",
  "contractName": "PairFlash",
  "sourceName": "contracts/PairFlash.sol",
  "abi": [
    {
      "inputs": [
        {
          "internalType": "contract ISwapRouter",
          "name": "_swapRouter",
          "type": "address"
        },
        {
          "internalType": "address",
          "name": "_factory",
          "type": "address"
        },
        {
          "internalType": "address",
          "name": "_WETH9",
          "type": "address"
        }
      ],
      "stateMutability": "nonpayable",
      "type": "constructor"
    },
    {
      "inputs": [],
      "name": "WETH9",
      "outputs": [
        {
          "internalType": "address",
          "name": "",
          "type": "address"
        }
      ],
      "stateMutability": "view",
      "type": "function"
    },
    {
      "inputs": [],
      "name": "factory",
      "outputs": [
        {
          "internalType": "address",
          "name": "",
          "type": "address"
        }
      ],
      "stateMutability": "view",
      "type": "function"
    },
    {
      "inputs": [
        {
          "components": [
            {
              "internalType": "address",
              "name": "token0",
              "type": "address"
            },
            {
              "internalType": "address",
              "name": "token1",
              "type": "address"
            },
            {
              "internalType": "uint24",
              "name": "fee1",
              "type": "uint24"
            },
            {
              "internalType": "uint256",
              "name": "amount0",
              "type": "uint256"
            },
            {
              "internalType": "uint256",
              "name": "amount1",
              "type": "uint256"
            },
            {
              "internalType": "uint24",
              "name": "fee2",
              "type": "uint24"
            },
            {
              "internalType": "uint24",
              "name": "fee3",
              "type": "uint24"
            }
          ],
          "internalType": "struct PairFlash.FlashParams",
          "name": "params",
          "type": "tuple"
        }
      ],
      "name": "initFlash",
      "outputs": [],
      "stateMutability": "nonpayable",
      "type": "function"
    },
    {
      "inputs": [],
      "name": "refundETH",
      "outputs": [],
      "stateMutability": "payable",
      "type": "function"
    },
    {
      "inputs": [],
      "name": "swapRouter",
      "outputs": [
        {
          "internalType": "contract ISwapRouter",
          "name": "",
          "type": "address"
        }
      ],
      "stateMutability": "view",
      "type": "function"
    },
    {
      "inputs": [
        {
          "internalType": "address",
          "name": "token",
          "type": "address"
        },
        {
          "internalType": "uint256",
          "name": "amountMinimum",
          "type": "uint256"
        },
        {
          "internalType": "address",
          "name": "recipient",
          "type": "address"
        }
      ],
      "name": "sweepToken",
      "outputs": [],
      "stateMutability": "payable",
      "type": "function"
    },
    {
      "inputs": [
        {
          "internalType": "uint256",
          "name": "fee0",
          "type": "uint256"
        },
        {
          "internalType": "uint256",
          "name": "fee1",
          "type": "uint256"
        },
        {
          "internalType": "bytes",
          "name": "data",
          "type": "bytes"
        }
      ],
      "name": "uniswapV3FlashCallback",
      "outputs": [],
      "stateMutability": "nonpayable",
      "type": "function"
    },
    {
      "inputs": [
        {
          "internalType": "uint256",
          "name": "amountMinimum",
          "type": "uint256"
        },
        {
          "internalType": "address",
          "name": "recipient",
          "type": "address"
        }
      ],
      "name": "unwrapWETH9",
      "outputs": [],
      "stateMutability": "payable",
      "type": "function"
    },
    {
      "stateMutability": "payable",
      "type": "receive"
    }
  ],
  "bytecode": "0x60e06040523480156200001157600080fd5b50604051620021f2380380620021f2833981810160405281019062000037919062000117565b81818173ffffffffffffffffffffffffffffffffffffffff1660808173ffffffffffffffffffffffffffffffffffffffff1660601b815250508073ffffffffffffffffffffffffffffffffffffffff1660a08173ffffffffffffffffffffffffffffffffffffffff1660601b8152505050508273ffffffffffffffffffffffffffffffffffffffff1660c08173ffffffffffffffffffffffffffffffffffffffff1660601b81525050505050620001e9565b600081519050620000fa81620001b5565b92915050565b6000815190506200011181620001cf565b92915050565b6000806000606084860312156200012d57600080fd5b60006200013d8682870162000100565b93505060206200015086828701620000e9565b92505060406200016386828701620000e9565b9150509250925092565b60006200017a8262000195565b9050919050565b60006200018e826200016d565b9050919050565b600073ffffffffffffffffffffffffffffffffffffffff82169050919050565b620001c0816200016d565b8114620001cc57600080fd5b50565b620001da8162000181565b8114620001e657600080fd5b50565b60805160601c60a05160601c60c05160601c611f986200025a6000398061060052806107df528061080e528061085f52806109b0525080608652806103fe528061054152806105dc5280611319528061137952806113fa5250806102da528061062452806107955250611f986000f3fe60806040526004361061007f5760003560e01c8063c31c9c071161004e578063c31c9c07146101c6578063c45a0155146101f1578063df2ab5bb1461021c578063e9cbafb01461023857610147565b806312210e8a1461014c5780632384463b1461015657806349404b7c1461017f5780634aa4a4fc1461019b57610147565b36610147577f000000000000000000000000000000000000000000000000000000000000000073ffffffffffffffffffffffffffffffffffffffff163373ffffffffffffffffffffffffffffffffffffffff1614610145576040517f08c379a00000000000000000000000000000000000000000000000000000000081526004018080602001828103825260098152602001807f4e6f74205745544839000000000000000000000000000000000000000000000081525060200191505060405180910390fd5b005b600080fd5b610154610261565b005b34801561016257600080fd5b5061017d60048036038101906101789190611a20565b610277565b005b61019960048036038101906101949190611a72565b6103fa565b005b3480156101a757600080fd5b506101b06105da565b6040516101bd9190611d2b565b60405180910390f35b3480156101d257600080fd5b506101db6105fe565b6040516101e89190611d92565b60405180910390f35b3480156101fd57600080fd5b50610206610622565b6040516102139190611d2b565b60405180910390f35b610236600480360381019061023191906119a7565b610646565b005b34801561024457600080fd5b5061025f600480360381019061025a9190611aae565b61077d565b005b6000471115610275576102743347610bd8565b5b565b60006040518060600160405280836000015173ffffffffffffffffffffffffffffffffffffffff168152602001836020015173ffffffffffffffffffffffffffffffffffffffff168152602001836040015162ffffff16815250905060006102ff7f000000000000000000000000000000000000000000000000000000000000000083610d54565b90508073ffffffffffffffffffffffffffffffffffffffff1663490e6cbc30856060015186608001516040518060c0016040528089606001518152602001896080015181526020013373ffffffffffffffffffffffffffffffffffffffff1681526020018881526020018960a0015162ffffff1681526020018960c0015162ffffff168152506040516020016103959190611dc9565b6040516020818303038152906040526040518563ffffffff1660e01b81526004016103c39493929190611d46565b600060405180830381600087803b1580156103dd57600080fd5b505af11580156103f1573d6000803e3d6000fd5b50505050505050565b60007f000000000000000000000000000000000000000000000000000000000000000073ffffffffffffffffffffffffffffffffffffffff166370a08231306040518263ffffffff1660e01b8152600401808273ffffffffffffffffffffffffffffffffffffffff16815260200191505060206040518083038186803b15801561048357600080fd5b505afa158015610497573d6000803e3d6000fd5b505050506040513d60208110156104ad57600080fd5b8101908080519060200190929190505050905082811015610536576040517f08c379a00000000000000000000000000000000000000000000000000000000081526004018080602001828103825260128152602001807f496e73756666696369656e74205745544839000000000000000000000000000081525060200191505060405180910390fd5b60008111156105d5577f000000000000000000000000000000000000000000000000000000000000000073ffffffffffffffffffffffffffffffffffffffff16632e1a7d4d826040518263ffffffff1660e01b815260040180828152602001915050600060405180830381600087803b1580156105b257600080fd5b505af11580156105c6573d6000803e3d6000fd5b505050506105d48282610bd8565b5b505050565b7f000000000000000000000000000000000000000000000000000000000000000081565b7f000000000000000000000000000000000000000000000000000000000000000081565b7f000000000000000000000000000000000000000000000000000000000000000081565b60008373ffffffffffffffffffffffffffffffffffffffff166370a08231306040518263ffffffff1660e01b8152600401808273ffffffffffffffffffffffffffffffffffffffff16815260200191505060206040518083038186803b1580156106af57600080fd5b505afa1580156106c3573d6000803e3d6000fd5b505050506040513d60208110156106d957600080fd5b8101908080519060200190929190505050905082811015610762576040517f08c379a00000000000000000000000000000000000000000000000000000000081526004018080602001828103825260128152602001807f496e73756666696369656e7420746f6b656e000000000000000000000000000081525060200191505060405180910390fd5b600081111561077757610776848383610eaf565b5b50505050565b6000828281019061078e91906119f6565b90506107be7f000000000000000000000000000000000000000000000000000000000000000082606001516110b0565b506000816060015160000151905060008260600151602001519050610808827f000000000000000000000000000000000000000000000000000000000000000085600001516110fc565b610837817f000000000000000000000000000000000000000000000000000000000000000085602001516110fc565b60006108478460200151886112fd565b9050600061085985600001518a6112fd565b905060007f000000000000000000000000000000000000000000000000000000000000000073ffffffffffffffffffffffffffffffffffffffff1663414bf3896040518061010001604052808773ffffffffffffffffffffffffffffffffffffffff1681526020018873ffffffffffffffffffffffffffffffffffffffff168152602001896080015162ffffff1681526020013073ffffffffffffffffffffffffffffffffffffffff16815260200160c84201815260200189602001518152602001858152602001600073ffffffffffffffffffffffffffffffffffffffff168152506040518263ffffffff1660e01b81526004016109589190611dad565b602060405180830381600087803b15801561097257600080fd5b505af1158015610986573d6000803e3d6000fd5b505050506040513d601f19601f820116820180604052508101906109aa9190611a49565b905060007f000000000000000000000000000000000000000000000000000000000000000073ffffffffffffffffffffffffffffffffffffffff1663414bf3896040518061010001604052808973ffffffffffffffffffffffffffffffffffffffff1681526020018873ffffffffffffffffffffffffffffffffffffffff1681526020018a60a0015162ffffff1681526020013073ffffffffffffffffffffffffffffffffffffffff16815260200160c8420181526020018a600001518152602001878152602001600073ffffffffffffffffffffffffffffffffffffffff168152506040518263ffffffff1660e01b8152600401610aa99190611dad565b602060405180830381600087803b158015610ac357600080fd5b505af1158015610ad7573d6000803e3d6000fd5b505050506040513d601f19601f82011682018060405250810190610afb9190611a49565b90506000610b0d88600001518d6112fd565b90506000610b1f89602001518d6112fd565b9050610b2c8830846110fc565b610b378730836110fc565b6000821115610b4d57610b4c88303385611317565b5b6000811115610b6357610b6287303384611317565b5b81841115610b96576000610b778584611522565b9050610b848930836110fc565b610b9489308c6040015184611317565b505b80831115610bc9576000610baa8483611522565b9050610bb78930836110fc565b610bc788308c6040015184611317565b505b50505050505050505050505050565b60008273ffffffffffffffffffffffffffffffffffffffff1682600067ffffffffffffffff81118015610c0a57600080fd5b506040519080825280601f01601f191660200182016040528015610c3d5781602001600182028036833780820191505090505b506040518082805190602001908083835b60208310610c715780518252602082019150602081019050602083039250610c4e565b6001836020036101000a03801982511681845116808217855250505050505090500191505060006040518083038185875af1925050503d8060008114610cd3576040519150601f19603f3d011682016040523d82523d6000602084013e610cd8565b606091505b5050905080610d4f576040517f08c379a00000000000000000000000000000000000000000000000000000000081526004018080602001828103825260038152602001807f535445000000000000000000000000000000000000000000000000000000000081525060200191505060405180910390fd5b505050565b6000816020015173ffffffffffffffffffffffffffffffffffffffff16826000015173ffffffffffffffffffffffffffffffffffffffff1610610d9657600080fd5b82826000015183602001518460400151604051602001808473ffffffffffffffffffffffffffffffffffffffff1681526020018373ffffffffffffffffffffffffffffffffffffffff1681526020018262ffffff1681526020019350505050604051602081830303815290604052805190602001207fe34f199b19b2b4f47f68442619d555527d244f78a3297ea89325f843f87b8b5460001b60405160200180807fff000000000000000000000000000000000000000000000000000000000000008152506001018473ffffffffffffffffffffffffffffffffffffffff1660601b815260140183815260200182815260200193505050506040516020818303038152906040528051906020012060001c905092915050565b6000808473ffffffffffffffffffffffffffffffffffffffff1663a9059cbb60e01b8585604051602401808373ffffffffffffffffffffffffffffffffffffffff16815260200182815260200192505050604051602081830303815290604052907bffffffffffffffffffffffffffffffffffffffffffffffffffffffff19166020820180517bffffffffffffffffffffffffffffffffffffffffffffffffffffffff83818316178352505050506040518082805190602001908083835b60208310610f905780518252602082019150602081019050602083039250610f6d565b6001836020036101000a0380198251168184511680821785525050505050509050019150506000604051808303816000865af19150503d8060008114610ff2576040519150601f19603f3d011682016040523d82523d6000602084013e610ff7565b606091505b50915091508180156110375750600081511480611036575080806020019051602081101561102457600080fd5b81019080805190602001909291905050505b5b6110a9576040517f08c379a00000000000000000000000000000000000000000000000000000000081526004018080602001828103825260028152602001807f535400000000000000000000000000000000000000000000000000000000000081525060200191505060405180910390fd5b5050505050565b60006110bc8383610d54565b90508073ffffffffffffffffffffffffffffffffffffffff163373ffffffffffffffffffffffffffffffffffffffff16146110f657600080fd5b92915050565b6000808473ffffffffffffffffffffffffffffffffffffffff1663095ea7b360e01b8585604051602401808373ffffffffffffffffffffffffffffffffffffffff16815260200182815260200192505050604051602081830303815290604052907bffffffffffffffffffffffffffffffffffffffffffffffffffffffff19166020820180517bffffffffffffffffffffffffffffffffffffffffffffffffffffffff83818316178352505050506040518082805190602001908083835b602083106111dd57805182526020820191506020810190506020830392506111ba565b6001836020036101000a0380198251168184511680821785525050505050509050019150506000604051808303816000865af19150503d806000811461123f576040519150601f19603f3d011682016040523d82523d6000602084013e611244565b606091505b50915091508180156112845750600081511480611283575080806020019051602081101561127157600080fd5b81019080805190602001909291905050505b5b6112f6576040517f08c379a00000000000000000000000000000000000000000000000000000000081526004018080602001828103825260028152602001807f534100000000000000000000000000000000000000000000000000000000000081525060200191505060405180910390fd5b5050505050565b600082828401915081101561131157600080fd5b92915050565b7f000000000000000000000000000000000000000000000000000000000000000073ffffffffffffffffffffffffffffffffffffffff168473ffffffffffffffffffffffffffffffffffffffff161480156113725750804710155b156114ca577f000000000000000000000000000000000000000000000000000000000000000073ffffffffffffffffffffffffffffffffffffffff1663d0e30db0826040518263ffffffff1660e01b81526004016000604051808303818588803b1580156113df57600080fd5b505af11580156113f3573d6000803e3d6000fd5b50505050507f000000000000000000000000000000000000000000000000000000000000000073ffffffffffffffffffffffffffffffffffffffff1663a9059cbb83836040518363ffffffff1660e01b8152600401808373ffffffffffffffffffffffffffffffffffffffff16815260200182815260200192505050602060405180830381600087803b15801561148957600080fd5b505af115801561149d573d6000803e3d6000fd5b505050506040513d60208110156114b357600080fd5b81019080805190602001909291905050505061151c565b3073ffffffffffffffffffffffffffffffffffffffff168373ffffffffffffffffffffffffffffffffffffffff16141561150e57611509848383610eaf565b61151b565b61151a8484848461153c565b5b5b50505050565b600082828403915081111561153657600080fd5b92915050565b6000808573ffffffffffffffffffffffffffffffffffffffff166323b872dd60e01b868686604051602401808473ffffffffffffffffffffffffffffffffffffffff1681526020018373ffffffffffffffffffffffffffffffffffffffff1681526020018281526020019350505050604051602081830303815290604052907bffffffffffffffffffffffffffffffffffffffffffffffffffffffff19166020820180517bffffffffffffffffffffffffffffffffffffffffffffffffffffffff83818316178352505050506040518082805190602001908083835b6020831061163b5780518252602082019150602081019050602083039250611618565b6001836020036101000a0380198251168184511680821785525050505050509050019150506000604051808303816000865af19150503d806000811461169d576040519150601f19603f3d011682016040523d82523d6000602084013e6116a2565b606091505b50915091508180156116e257506000815114806116e157508080602001905160208110156116cf57600080fd5b81019080805190602001909291905050505b5b611754576040517f08c379a00000000000000000000000000000000000000000000000000000000081526004018080602001828103825260038152602001807f535446000000000000000000000000000000000000000000000000000000000081525060200191505060405180910390fd5b505050505050565b60008135905061176b81611f1d565b92915050565b60008083601f84011261178357600080fd5b8235905067ffffffffffffffff81111561179c57600080fd5b6020830191508360018202830111156117b457600080fd5b9250929050565b600061010082840312156117ce57600080fd5b6117d860c0611de5565b905060006117e88482850161197d565b60008301525060206117fc8482850161197d565b60208301525060406118108482850161175c565b604083015250606061182484828501611908565b60608301525060c061183884828501611968565b60808301525060e061184c84828501611968565b60a08301525092915050565b600060e0828403121561186a57600080fd5b61187460e0611de5565b905060006118848482850161175c565b60008301525060206118988482850161175c565b60208301525060406118ac84828501611968565b60408301525060606118c08482850161197d565b60608301525060806118d48482850161197d565b60808301525060a06118e884828501611968565b60a08301525060c06118fc84828501611968565b60c08301525092915050565b60006060828403121561191a57600080fd5b6119246060611de5565b905060006119348482850161175c565b60008301525060206119488482850161175c565b602083015250604061195c84828501611968565b60408301525092915050565b60008135905061197781611f34565b92915050565b60008135905061198c81611f4b565b92915050565b6000815190506119a181611f4b565b92915050565b6000806000606084860312156119bc57600080fd5b60006119ca8682870161175c565b93505060206119db8682870161197d565b92505060406119ec8682870161175c565b9150509250925092565b60006101008284031215611a0957600080fd5b6000611a17848285016117bb565b91505092915050565b600060e08284031215611a3257600080fd5b6000611a4084828501611858565b91505092915050565b600060208284031215611a5b57600080fd5b6000611a6984828501611992565b91505092915050565b60008060408385031215611a8557600080fd5b6000611a938582860161197d565b9250506020611aa48582860161175c565b9150509250929050565b60008060008060608587031215611ac457600080fd5b6000611ad28782880161197d565b9450506020611ae38782880161197d565b935050604085013567ffffffffffffffff811115611b0057600080fd5b611b0c87828801611771565b925092505092959194509250565b611b2381611e7d565b82525050565b611b3281611e32565b82525050565b611b4181611e32565b82525050565b6000611b5282611e16565b611b5c8185611e21565b9350611b6c818560208601611ed7565b611b7581611f0c565b840191505092915050565b611b8981611e8f565b82525050565b61010082016000820151611ba66000850182611b29565b506020820151611bb96020850182611b29565b506040820151611bcc6040850182611cfe565b506060820151611bdf6060850182611b29565b506080820151611bf26080850182611d0d565b5060a0820151611c0560a0850182611d0d565b5060c0820151611c1860c0850182611d0d565b5060e0820151611c2b60e0850182611cef565b50505050565b61010082016000820151611c486000850182611d0d565b506020820151611c5b6020850182611d0d565b506040820151611c6e6040850182611b29565b506060820151611c816060850182611cad565b506080820151611c9460c0850182611cfe565b5060a0820151611ca760e0850182611cfe565b50505050565b606082016000820151611cc36000850182611b29565b506020820151611cd66020850182611b29565b506040820151611ce96040850182611cfe565b50505050565b611cf881611e44565b82525050565b611d0781611e64565b82525050565b611d1681611e73565b82525050565b611d2581611e73565b82525050565b6000602082019050611d406000830184611b38565b92915050565b6000608082019050611d5b6000830187611b1a565b611d686020830186611d1c565b611d756040830185611d1c565b8181036060830152611d878184611b47565b905095945050505050565b6000602082019050611da76000830184611b80565b92915050565b600061010082019050611dc36000830184611b8f565b92915050565b600061010082019050611ddf6000830184611c31565b92915050565b6000604051905081810181811067ffffffffffffffff82111715611e0c57611e0b611f0a565b5b8060405250919050565b600081519050919050565b600082825260208201905092915050565b6000611e3d82611e44565b9050919050565b600073ffffffffffffffffffffffffffffffffffffffff82169050919050565b600062ffffff82169050919050565b6000819050919050565b6000611e8882611eb3565b9050919050565b6000611e9a82611ea1565b9050919050565b6000611eac82611e44565b9050919050565b6000611ebe82611ec5565b9050919050565b6000611ed082611e44565b9050919050565b60005b83811015611ef5578082015181840152602081019050611eda565b83811115611f04576000848401525b50505050565bfe5b6000601f19601f8301169050919050565b611f2681611e32565b8114611f3157600080fd5b50565b611f3d81611e64565b8114611f4857600080fd5b50565b611f5481611e73565b8114611f5f57600080fd5b5056fea26469706673582212201f7ef5b45dacaf00ac579b731c6ff01448032c4e5bab2e5e1e49395cbbdc503f64736f6c63430007060033",
  "linkReferences": {},
  "deployedLinkReferences": {}
}