{
  "_format": "hh-sol-artifact-1",
  "contractName": "LiquidityContract",
  "sourceName": "contracts/LiquidityContract.sol",
  "abi": [
    {
      "inputs": [
        {
          "internalType": "contract INonfungiblePositionManager",
          "name": "_nonfungiblePositionManager",
          "type": "address"
        }
      ],
      "stateMutability": "nonpayable",
      "type": "constructor"
    },
    {
      "inputs": [],
      "name": "DAI",
      "outputs": [
        {
          "internalType": "address",
          "name": "",
          "type": "address"
        }
      ],
      "stateMutability": "view",
      "type": "function"
    },
    {
      "inputs": [],
      "name": "USDC",
      "outputs": [
        {
          "internalType": "address",
          "name": "",
          "type": "address"
        }
      ],
      "stateMutability": "view",
      "type": "function"
    },
    {
      "inputs": [
        {
          "internalType": "uint256",
          "name": "tokenId",
          "type": "uint256"
        }
      ],
      "name": "collectAllFees",
      "outputs": [
        {
          "internalType": "uint256",
          "name": "amount0",
          "type": "uint256"
        },
        {
          "internalType": "uint256",
          "name": "amount1",
          "type": "uint256"
        }
      ],
      "stateMutability": "nonpayable",
      "type": "function"
    },
    {
      "inputs": [
        {
          "internalType": "uint256",
          "name": "tokenId",
          "type": "uint256"
        }
      ],
      "name": "decreaseLiquidityInHalf",
      "outputs": [
        {
          "internalType": "uint256",
          "name": "amount0",
          "type": "uint256"
        },
        {
          "internalType": "uint256",
          "name": "amount1",
          "type": "uint256"
        }
      ],
      "stateMutability": "nonpayable",
      "type": "function"
    },
    {
      "inputs": [
        {
          "internalType": "uint256",
          "name": "",
          "type": "uint256"
        }
      ],
      "name": "deposits",
      "outputs": [
        {
          "internalType": "address",
          "name": "owner",
          "type": "address"
        },
        {
          "internalType": "uint128",
          "name": "liquidity",
          "type": "uint128"
        },
        {
          "internalType": "address",
          "name": "token0",
          "type": "address"
        },
        {
          "internalType": "address",
          "name": "token1",
          "type": "address"
        }
      ],
      "stateMutability": "view",
      "type": "function"
    },
    {
      "inputs": [
        {
          "internalType": "uint256",
          "name": "tokenId",
          "type": "uint256"
        },
        {
          "internalType": "uint256",
          "name": "amountAdd0",
          "type": "uint256"
        },
        {
          "internalType": "uint256",
          "name": "amountAdd1",
          "type": "uint256"
        }
      ],
      "name": "increaseLiquidityCurrentRange",
      "outputs": [
        {
          "internalType": "uint128",
          "name": "liquidity",
          "type": "uint128"
        },
        {
          "internalType": "uint256",
          "name": "amount0",
          "type": "uint256"
        },
        {
          "internalType": "uint256",
          "name": "amount1",
          "type": "uint256"
        }
      ],
      "stateMutability": "nonpayable",
      "type": "function"
    },
    {
      "inputs": [],
      "name": "mintNewPosition",
      "outputs": [
        {
          "internalType": "uint256",
          "name": "tokenId",
          "type": "uint256"
        },
        {
          "internalType": "uint128",
          "name": "liquidity",
          "type": "uint128"
        },
        {
          "internalType": "uint256",
          "name": "amount0",
          "type": "uint256"
        },
        {
          "internalType": "uint256",
          "name": "amount1",
          "type": "uint256"
        }
      ],
      "stateMutability": "nonpayable",
      "type": "function"
    },
    {
      "inputs": [],
      "name": "nonfungiblePositionManager",
      "outputs": [
        {
          "internalType": "contract INonfungiblePositionManager",
          "name": "",
          "type": "address"
        }
      ],
      "stateMutability": "view",
      "type": "function"
    },
    {
      "inputs": [
        {
          "internalType": "address",
          "name": "operator",
          "type": "address"
        },
        {
          "internalType": "address",
          "name": "",
          "type": "address"
        },
        {
          "internalType": "uint256",
          "name": "tokenId",
          "type": "uint256"
        },
        {
          "internalType": "bytes",
          "name": "",
          "type": "bytes"
        }
      ],
      "name": "onERC721Received",
      "outputs": [
        {
          "internalType": "bytes4",
          "name": "",
          "type": "bytes4"
        }
      ],
      "stateMutability": "nonpayable",
      "type": "function"
    },
    {
      "inputs": [],
      "name": "poolFee",
      "outputs": [
        {
          "internalType": "uint24",
          "name": "",
          "type": "uint24"
        }
      ],
      "stateMutability": "view",
      "type": "function"
    },
    {
      "inputs": [
        {
          "internalType": "uint256",
          "name": "tokenId",
          "type": "uint256"
        }
      ],
      "name": "retrieveNFT",
      "outputs": [],
      "stateMutability": "nonpayable",
      "type": "function"
    }
  ],
  "bytecode": "0x60a06040523480156200001157600080fd5b506040516200206b3803806200206b83398181016040528101906200003791906200008c565b8073ffffffffffffffffffffffffffffffffffffffff1660808173ffffffffffffffffffffffffffffffffffffffff1660601b81525050506200011a565b600081519050620000868162000100565b92915050565b6000602082840312156200009f57600080fd5b6000620000af8482850162000075565b91505092915050565b6000620000c582620000e0565b9050919050565b6000620000d982620000b8565b9050919050565b600073ffffffffffffffffffffffffffffffffffffffff82169050919050565b6200010b81620000cc565b81146200011757600080fd5b50565b60805160601c611ef76200017460003980610305528061048f52806104ce528061060152806106e6528061075652806107b252806108a05280610a235280610a835280610add5280610cda5280610e635250611ef76000f3fe608060405234801561001057600080fd5b50600436106100a95760003560e01c8063617d6d6e11610071578063617d6d6e1461016a5780638187b4c51461019c57806389a30271146101cd578063b02c43d0146101eb578063b44a27221461021e578063e0bab4c41461023c576100a9565b8063089fe6aa146100ae5780630a1d7c5f146100cc578063150b7a02146100e8578063306d9c611461011857806346ce96dd14610139575b600080fd5b6100b661025a565b6040516100c39190611ce8565b60405180910390f35b6100e660048036038101906100e191906116fc565b610260565b005b61010260048036038101906100fd919061162d565b610442565b60405161010f9190611bee565b60405180910390f35b610120610461565b6040516101309493929190611d03565b60405180910390f35b610153600480360381019061014e91906116fc565b6107ad565b604051610161929190611d48565b60405180910390f35b610184600480360381019061017f91906117c4565b610961565b60405161019393929190611cb1565b60405180910390f35b6101b660048036038101906101b191906116fc565b610b9c565b6040516101c4929190611d48565b60405180910390f35b6101d5610d9d565b6040516101e29190611b20565b60405180910390f35b610205600480360381019061020091906116fc565b610db5565b6040516102159493929190611ba9565b60405180910390f35b610226610e61565b6040516102339190611c09565b60405180910390f35b610244610e85565b6040516102519190611b20565b60405180910390f35b610bb881565b60008082815260200190815260200160002060000160009054906101000a900473ffffffffffffffffffffffffffffffffffffffff1673ffffffffffffffffffffffffffffffffffffffff163373ffffffffffffffffffffffffffffffffffffffff1614610303576040517f08c379a00000000000000000000000000000000000000000000000000000000081526004016102fa90611c24565b60405180910390fd5b7f000000000000000000000000000000000000000000000000000000000000000073ffffffffffffffffffffffffffffffffffffffff166342842e0e3033846040518463ffffffff1660e01b815260040161036093929190611b72565b600060405180830381600087803b15801561037a57600080fd5b505af115801561038e573d6000803e3d6000fd5b50505050600080828152602001908152602001600020600080820160006101000a81549073ffffffffffffffffffffffffffffffffffffffff02191690556001820160006101000a8154906fffffffffffffffffffffffffffffffff02191690556002820160006101000a81549073ffffffffffffffffffffffffffffffffffffffff02191690556003820160006101000a81549073ffffffffffffffffffffffffffffffffffffffff0219169055505050565b600061044e8685610e9d565b63150b7a0260e01b905095945050505050565b60008060008060006103e8905060006103e890506104b4736b175474e89094c44da98b954eedeac495271d0f7f000000000000000000000000000000000000000000000000000000000000000084610ea1565b6104f373a0b86991c6218b36c1d19d4a2e9eb0ce3606eb487f000000000000000000000000000000000000000000000000000000000000000083610ea1565b6000604051806101600160405280736b175474e89094c44da98b954eedeac495271d0f73ffffffffffffffffffffffffffffffffffffffff16815260200173a0b86991c6218b36c1d19d4a2e9eb0ce3606eb4873ffffffffffffffffffffffffffffffffffffffff168152602001610bb862ffffff1681526020017ffffffffffffffffffffffffffffffffffffffffffffffffffffffffffff2761860020b81526020017ffffffffffffffffffffffffffffffffffffffffffffffffffffffffffff2761860000360020b815260200184815260200183815260200160008152602001600081526020013073ffffffffffffffffffffffffffffffffffffffff1681526020014281525090507f000000000000000000000000000000000000000000000000000000000000000073ffffffffffffffffffffffffffffffffffffffff166388316456826040518263ffffffff1660e01b81526004016106589190611c95565b608060405180830381600087803b15801561067257600080fd5b505af1158015610686573d6000803e3d6000fd5b505050506040513d601f19601f820116820180604052508101906106aa9190611725565b809750819850829950839a50505050506106c43388610e9d565b828510156107345761070c736b175474e89094c44da98b954eedeac495271d0f7f00000000000000000000000000000000000000000000000000000000000000006000610ea1565b60008584039050610732736b175474e89094c44da98b954eedeac495271d0f33836110a2565b505b818410156107a45761077c73a0b86991c6218b36c1d19d4a2e9eb0ce3606eb487f00000000000000000000000000000000000000000000000000000000000000006000610ea1565b600084830390506107a273a0b86991c6218b36c1d19d4a2e9eb0ce3606eb4833836110a2565b505b50505090919293565b6000807f000000000000000000000000000000000000000000000000000000000000000073ffffffffffffffffffffffffffffffffffffffff166342842e0e3330866040518463ffffffff1660e01b815260040161080d93929190611b3b565b600060405180830381600087803b15801561082757600080fd5b505af115801561083b573d6000803e3d6000fd5b50505050600060405180608001604052808581526020013073ffffffffffffffffffffffffffffffffffffffff1681526020016fffffffffffffffffffffffffffffffff801681526020016fffffffffffffffffffffffffffffffff801681525090507f000000000000000000000000000000000000000000000000000000000000000073ffffffffffffffffffffffffffffffffffffffff1663fc6f7865826040518263ffffffff1660e01b81526004016108f79190611c44565b6040805180830381600087803b15801561091057600080fd5b505af1158015610924573d6000803e3d6000fd5b505050506040513d601f19601f820116820180604052508101906109489190611788565b809350819450505061095b8484846112a3565b50915091565b60008060006109a760008088815260200190815260200160002060020160009054906101000a900473ffffffffffffffffffffffffffffffffffffffff1633308861136f565b6109e860008088815260200190815260200160002060030160009054906101000a900473ffffffffffffffffffffffffffffffffffffffff1633308761136f565b610a4860008088815260200190815260200160002060020160009054906101000a900473ffffffffffffffffffffffffffffffffffffffff167f000000000000000000000000000000000000000000000000000000000000000087610ea1565b610aa860008088815260200190815260200160002060030160009054906101000a900473ffffffffffffffffffffffffffffffffffffffff167f000000000000000000000000000000000000000000000000000000000000000086610ea1565b60006040518060c0016040528088815260200187815260200186815260200160008152602001600081526020014281525090507f000000000000000000000000000000000000000000000000000000000000000073ffffffffffffffffffffffffffffffffffffffff1663219f5d17826040518263ffffffff1660e01b8152600401610b349190611c7a565b606060405180830381600087803b158015610b4e57600080fd5b505af1158015610b62573d6000803e3d6000fd5b505050506040513d601f19601f82011682018060405250810190610b8691906116ad565b8094508195508296505050505093509350939050565b60008060008084815260200190815260200160002060000160009054906101000a900473ffffffffffffffffffffffffffffffffffffffff1673ffffffffffffffffffffffffffffffffffffffff163373ffffffffffffffffffffffffffffffffffffffff1614610c42576040517f08c379a0000000000000000000000000000000000000000000000000000000008152600401610c3990611c24565b60405180910390fd5b600080600085815260200190815260200160002060010160009054906101000a90046fffffffffffffffffffffffffffffffff16905060006002826fffffffffffffffffffffffffffffffff1681610c9657fe5b04905060006040518060a00160405280878152602001836fffffffffffffffffffffffffffffffff16815260200160008152602001600081526020014281525090507f000000000000000000000000000000000000000000000000000000000000000073ffffffffffffffffffffffffffffffffffffffff16630c49ccbe826040518263ffffffff1660e01b8152600401610d319190611c5f565b6040805180830381600087803b158015610d4a57600080fd5b505af1158015610d5e573d6000803e3d6000fd5b505050506040513d601f19601f82011682018060405250810190610d829190611788565b8095508196505050610d958686866112a3565b505050915091565b73a0b86991c6218b36c1d19d4a2e9eb0ce3606eb4881565b60006020528060005260406000206000915090508060000160009054906101000a900473ffffffffffffffffffffffffffffffffffffffff16908060010160009054906101000a90046fffffffffffffffffffffffffffffffff16908060020160009054906101000a900473ffffffffffffffffffffffffffffffffffffffff16908060030160009054906101000a900473ffffffffffffffffffffffffffffffffffffffff16905084565b7f000000000000000000000000000000000000000000000000000000000000000081565b736b175474e89094c44da98b954eedeac495271d0f81565b5050565b6000808473ffffffffffffffffffffffffffffffffffffffff1663095ea7b360e01b8585604051602401808373ffffffffffffffffffffffffffffffffffffffff16815260200182815260200192505050604051602081830303815290604052907bffffffffffffffffffffffffffffffffffffffffffffffffffffffff19166020820180517bffffffffffffffffffffffffffffffffffffffffffffffffffffffff83818316178352505050506040518082805190602001908083835b60208310610f825780518252602082019150602081019050602083039250610f5f565b6001836020036101000a0380198251168184511680821785525050505050509050019150506000604051808303816000865af19150503d8060008114610fe4576040519150601f19603f3d011682016040523d82523d6000602084013e610fe9565b606091505b50915091508180156110295750600081511480611028575080806020019051602081101561101657600080fd5b81019080805190602001909291905050505b5b61109b576040517f08c379a00000000000000000000000000000000000000000000000000000000081526004018080602001828103825260028152602001807f534100000000000000000000000000000000000000000000000000000000000081525060200191505060405180910390fd5b5050505050565b6000808473ffffffffffffffffffffffffffffffffffffffff1663a9059cbb60e01b8585604051602401808373ffffffffffffffffffffffffffffffffffffffff16815260200182815260200192505050604051602081830303815290604052907bffffffffffffffffffffffffffffffffffffffffffffffffffffffff19166020820180517bffffffffffffffffffffffffffffffffffffffffffffffffffffffff83818316178352505050506040518082805190602001908083835b602083106111835780518252602082019150602081019050602083039250611160565b6001836020036101000a0380198251168184511680821785525050505050509050019150506000604051808303816000865af19150503d80600081146111e5576040519150601f19603f3d011682016040523d82523d6000602084013e6111ea565b606091505b509150915081801561122a5750600081511480611229575080806020019051602081101561121757600080fd5b81019080805190602001909291905050505b5b61129c576040517f08c379a00000000000000000000000000000000000000000000000000000000081526004018080602001828103825260028152602001807f535400000000000000000000000000000000000000000000000000000000000081525060200191505060405180910390fd5b5050505050565b600080600085815260200190815260200160002060000160009054906101000a900473ffffffffffffffffffffffffffffffffffffffff169050600080600086815260200190815260200160002060020160009054906101000a900473ffffffffffffffffffffffffffffffffffffffff169050600080600087815260200190815260200160002060030160009054906101000a900473ffffffffffffffffffffffffffffffffffffffff16905061135c8284876110a2565b6113678184866110a2565b505050505050565b6000808573ffffffffffffffffffffffffffffffffffffffff166323b872dd60e01b868686604051602401808473ffffffffffffffffffffffffffffffffffffffff1681526020018373ffffffffffffffffffffffffffffffffffffffff1681526020018281526020019350505050604051602081830303815290604052907bffffffffffffffffffffffffffffffffffffffffffffffffffffffff19166020820180517bffffffffffffffffffffffffffffffffffffffffffffffffffffffff83818316178352505050506040518082805190602001908083835b6020831061146e578051825260208201915060208101905060208303925061144b565b6001836020036101000a0380198251168184511680821785525050505050509050019150506000604051808303816000865af19150503d80600081146114d0576040519150601f19603f3d011682016040523d82523d6000602084013e6114d5565b606091505b50915091508180156115155750600081511480611514575080806020019051602081101561150257600080fd5b81019080805190602001909291905050505b5b611587576040517f08c379a00000000000000000000000000000000000000000000000000000000081526004018080602001828103825260038152602001807f535446000000000000000000000000000000000000000000000000000000000081525060200191505060405180910390fd5b505050505050565b60008135905061159e81611e7c565b92915050565b60008083601f8401126115b657600080fd5b8235905067ffffffffffffffff8111156115cf57600080fd5b6020830191508360018202830111156115e757600080fd5b9250929050565b6000815190506115fd81611e93565b92915050565b60008135905061161281611eaa565b92915050565b60008151905061162781611eaa565b92915050565b60008060008060006080868803121561164557600080fd5b60006116538882890161158f565b95505060206116648882890161158f565b945050604061167588828901611603565b935050606086013567ffffffffffffffff81111561169257600080fd5b61169e888289016115a4565b92509250509295509295909350565b6000806000606084860312156116c257600080fd5b60006116d0868287016115ee565b93505060206116e186828701611618565b92505060406116f286828701611618565b9150509250925092565b60006020828403121561170e57600080fd5b600061171c84828501611603565b91505092915050565b6000806000806080858703121561173b57600080fd5b600061174987828801611618565b945050602061175a878288016115ee565b935050604061176b87828801611618565b925050606061177c87828801611618565b91505092959194509250565b6000806040838503121561179b57600080fd5b60006117a985828601611618565b92505060206117ba85828601611618565b9150509250929050565b6000806000606084860312156117d957600080fd5b60006117e786828701611603565b93505060206117f886828701611603565b925050604061180986828701611603565b9150509250925092565b61181c81611e22565b82525050565b61182b81611d82565b82525050565b61183a81611d82565b82525050565b61184981611d94565b82525050565b61185881611e34565b82525050565b61186781611dc0565b82525050565b600061187a600d83611d71565b91507f4e6f7420746865206f776e6572000000000000000000000000000000000000006000830152602082019050919050565b6080820160008201516118c36000850182611b02565b5060208201516118d66020850182611822565b5060408201516118e96040850182611ac6565b5060608201516118fc6060850182611ac6565b50505050565b60a0820160008201516119186000850182611b02565b50602082015161192b6020850182611ac6565b50604082015161193e6040850182611b02565b5060608201516119516060850182611b02565b5060808201516119646080850182611b02565b50505050565b60c0820160008201516119806000850182611b02565b5060208201516119936020850182611b02565b5060408201516119a66040850182611b02565b5060608201516119b96060850182611b02565b5060808201516119cc6080850182611b02565b5060a08201516119df60a0850182611b02565b50505050565b610160820160008201516119fc6000850182611822565b506020820151611a0f6020850182611822565b506040820151611a226040850182611ae4565b506060820151611a35606085018261185e565b506080820151611a48608085018261185e565b5060a0820151611a5b60a0850182611b02565b5060c0820151611a6e60c0850182611b02565b5060e0820151611a8160e0850182611b02565b50610100820151611a96610100850182611b02565b50610120820151611aab610120850182611822565b50610140820151611ac0610140850182611b02565b50505050565b611acf81611dcd565b82525050565b611ade81611dcd565b82525050565b611aed81611e09565b82525050565b611afc81611e09565b82525050565b611b0b81611e18565b82525050565b611b1a81611e18565b82525050565b6000602082019050611b356000830184611831565b92915050565b6000606082019050611b506000830186611813565b611b5d6020830185611831565b611b6a6040830184611b11565b949350505050565b6000606082019050611b876000830186611831565b611b946020830185611813565b611ba16040830184611b11565b949350505050565b6000608082019050611bbe6000830187611831565b611bcb6020830186611ad5565b611bd86040830185611831565b611be56060830184611831565b95945050505050565b6000602082019050611c036000830184611840565b92915050565b6000602082019050611c1e600083018461184f565b92915050565b60006020820190508181036000830152611c3d8161186d565b9050919050565b6000608082019050611c5960008301846118ad565b92915050565b600060a082019050611c746000830184611902565b92915050565b600060c082019050611c8f600083018461196a565b92915050565b600061016082019050611cab60008301846119e5565b92915050565b6000606082019050611cc66000830186611ad5565b611cd36020830185611b11565b611ce06040830184611b11565b949350505050565b6000602082019050611cfd6000830184611af3565b92915050565b6000608082019050611d186000830187611b11565b611d256020830186611ad5565b611d326040830185611b11565b611d3f6060830184611b11565b95945050505050565b6000604082019050611d5d6000830185611b11565b611d6a6020830184611b11565b9392505050565b600082825260208201905092915050565b6000611d8d82611de9565b9050919050565b60007fffffffff0000000000000000000000000000000000000000000000000000000082169050919050565b60008160020b9050919050565b60006fffffffffffffffffffffffffffffffff82169050919050565b600073ffffffffffffffffffffffffffffffffffffffff82169050919050565b600062ffffff82169050919050565b6000819050919050565b6000611e2d82611e58565b9050919050565b6000611e3f82611e46565b9050919050565b6000611e5182611de9565b9050919050565b6000611e6382611e6a565b9050919050565b6000611e7582611de9565b9050919050565b611e8581611d82565b8114611e9057600080fd5b50565b611e9c81611dcd565b8114611ea757600080fd5b50565b611eb381611e18565b8114611ebe57600080fd5b5056fea2646970667358221220c1966c033ab9182edc3f11f09ba584a2144b0bf7e189dadf1f30c401e59b64e864736f6c63430007060033",
  "linkReferences": {},
  "deployedLinkReferences": {}
}